:020000040800F2
:10000000800A0020D5020008130300081503000829
:1000100017030008190300081B0300080000000074
:100020000000000000000000000000001D030008A8
:100030001F0300080000000021030008230300083C
:1000400025030008250300082503000825030008F0
:1000500025030008250300082503000825030008E0
:1000600025030008250300082503000825030008D0
:1000700025030008250300082503000825030008C0
:1000800025030008250300082503000825030008B0
:1000900025030008250300082503000825030008A0
:1000A0002503000825030008250300082503000890
:1000B0002503000825030008250300087115000822
:1000C0006D15000825030008250300082503000816
:1000D0002503000825030008250300082503000860
:1000E0002503000825030008250300082503000850
:1000F0002503000825030008250300082503000840
:10010000250300082503000825030008250300082F
:10011000250300082503000825030008250300081F
:10012000250300082503000825030008250300080F
:1001300025030008250300082503000825030008FF
:1001400025030008250300082503000825030008EF
:1001500025030008250300082503000825030008DF
:1001600025030008250300082503000825030008CF
:1001700025030008250300082503000800000000EF
:10018000250300082503000800F002F800F092F8AB
:100190000AA090E8000C82448344AAF10107DA45E2
:1001A00001D100F087F8AFF2090EBAE80F0013F0A2
:1001B000010F18BFFB1A43F0010318473C39000038
:1001C0005C390000103A24BF78C878C1FAD85207C9
:1001D00024BF30C830C144BF04680C6070470000C1
:1001E0000023002400250026103A28BF78C1FBD840
:1001F000520728BF30C148BF0B6070476E2900F01E
:10020000B981702900F0FF82662902F042856529D4
:1002100002F03F85672902F03C85612902F03B85A9
:1002200003681B0A28BF41F08001692900F066813C
:10023000642900F06381752900F060816F2900F066
:100240008D82782900F0CB82E92900F02782E42909
:1002500000F02482F52900F02182EF2900F08A8243
:10026000F82900F0CA820368DB0928BF41F0800149
:10027000632900F0FC87732901F00180E32901F074
:100280000C80F32901F01180002070471FB502F0A7
:10029000F3FC01F065F804000020002102F0D6FC18
:1002A000401C60600020002102F0BAFCE0601FBD2D
:1002B00010B510BD01F026F81146FFF7E7FF01F079
:1002C0001DFE01F003F903B4FFF7F2FF03BC01F0D8
:1002D00045F9000017481849184B99423CBF50F89F
:1002E000042B41F8042BF8D3154B16494FF00002AC
:1002F0008B4238BF43F8042BFAD3DFF84C00016877
:1003000041F470010160BFF34F8FBFF36F8F0F484F
:100310000047FEE7FEE7FEE7FEE7FEE7FEE7FEE753
:10032000FEE7FEE7FEE7000009480A490A4A0B4BD0
:1003300070470000483C0008000000201800002022
:1003400018000020800A002088ED00E089010008E4
:1003500080040020800A0020800600208006002003
:100360000FB41CB5084B06AA7B446946009005985B
:1003700000F019F904460020694600F027F92046EC
:100380001CBC5DF814FB00006102000010B5431EA8
:1003900013F8014F002CFBD105E011F8014B002CA4
:1003A00003F8014B03D0521EF7D20021197010BD83
:1003B00010B5431C02E010F8011B71B18107FAD19E
:1003C0004FF0013202C88C1A8C4314EAC211F9D0E2
:1003D000C01A0A0603D0C01E10BDC01A10BD0A0400
:1003E00001D0801E10BD0902FCD0401E10BD4FF090
:1003F00000020429C0F0128010F0030C00F0D78234
:10040000CCF1040CBCF1020F18BF00F8012BA8BFFF
:1004100020F8022BA1EB0C0100F0C9BA5FEAC17C05
:1004200024BF00F8012B00F8012B48BF00F8012B76
:10043000704770477047704770B50446856900681B
:10044000C10601D5302600E02026C00707D070BDC8
:10045000D4E9012130469047206A401C20626D1E7D
:10046000F6D570BD70B5044685690078C00707D120
:1004700070BDD4E9012120209047206A401C2062F1
:100480006D1EF6D570BD09684A0501D540B27047AA
:10049000C905FCD500B2704709684A0501D5C0B24C
:1004A0007047C905FCD580B2704770B50C4605464B
:1004B000012A05D02878800600D5EA69002302E0E9
:1004C000012305E05B1C934202D2E05C0028F9D1D5
:1004D000A869E618C01AA861286A18442862284644
:1004E000FFF7AAFF04E0D5E9012114F8010B9047BA
:1004F000B442F8D32846FFF7B5FF70BD2DE9F041AF
:100500000646002410687529314616A510D0FFF75D
:10051000BAFF002802DA404213A507E031688A07D3
:1005200001D512A502E0490704D511A5012401E077
:10053000FFF7B2FF00210A2206F1240709E0B0FB11
:10054000F2FCB0FBF2F302FB1C003030785418468A
:10055000491C0028F3D123462A463046BDE8F04125
:1005600000F08FBA000000002D0000002B000000FA
:100570002000000011680268006A530501D5087068
:100580000AE0D30501D5088006E0130603D5C2179B
:10059000C1E9000200E008600120704701694A1CBF
:1005A00002610878704700B58FB0CDE901310021B4
:1005B000059105497944CDE903101146684600F0DC
:1005C0002DF90FB000BD0000E5FFFFFF0A6802F83B
:1005D000010B0A60704700002DE9FF5F15468A464F
:1005E0000446DFF8AC80F8440027D8E900103E4606
:1005F000CDE9001010E03AF816106A4602A800F0A3
:1006000058FE411C07D02178890603D5E2693918C4
:1006100091420DD80744761C2078800602D5E06907
:10062000B84205DDAE42E6DB3AF816000028E2D11A
:10063000A069C01BA0612046FFF7FEFED8E90010AC
:10064000CDE90010002017E03AF818106A4602A819
:1006500000F02FFEB0F1FF3F81460BD000250DF1D9
:10066000080B05E0D4E901211BF8050090476D1C3B
:100670004D45F7D308F10100B0428046E4DB206A23
:10068000384420622046FFF7EDFE00F003B800007A
:10069000B22600003FBCBDE8C09F00002DE9F0413C
:1006A0008046D21D22F007020025D2E90002F5297A
:1006B00015A614D0011E72F1000106DA0023D0EB5A
:1006C000030063EB020211A608E0D8F800108B07C4
:1006D00001D50FA602E0490701D50EA60125114656
:1006E000002408F1240704E000F086F930323A557E
:1006F000641C50EA0102F7D12B463246214640469F
:10070000BDE8F04100F0BDB9000000002D00000080
:100710002B0000002000000030B4002100F1240470
:1007200008E002F00705D208303542EA4372DB08E0
:100730006554491C52EA0305F3D10468002310A252
:10074000250708D504F020040C4304D0C469012314
:100750000CA2641EC46130BC00F093B910B504460D
:1007600021461068FFF798FE02462046BDE810407B
:100770000023D1E7D21D22F00701D1E90023CBE706
:100780000000000030000000F0B40D4601880905AB
:1007900002D5214C7C4402E01F4C7C440E340021E5
:1007A00000F1240608E002F00F071209E75D42EAB3
:1007B00003721B097754491C52EA0307F3D10278EC
:1007C0000023120704D5702D06D009B1022311347D
:1007D0002246F0BC00F055B901231034F8E770B59B
:1007E00004460D4621461068FFF756FE024629468C
:1007F0002046BDE870400023C6E7D21D22F0070363
:10080000D3E90023C0E70368126843F020030360C4
:100810000823C3610023B7E70C2500002DE9F05F32
:10082000894604464FF0000ADFF874B1FB44C0F873
:1008300020A02046E1688847002874D0252806D0EB
:10084000D4E901219047206A401C2062F1E700268C
:100850005F462046E16888472028054607DB312DA2
:1008600005D2781910F8200C08B10643F1E7B0075B
:1008700001D526F00406C4F81CA00027C4F818A06F
:100880002A2D09D0284602F0C3F938B304EB8708B3
:10089000303DC8F8185019E059F8041B204604EB05
:1008A00087029161E1688847012F054618D1E06908
:1008B000002820DA26F020061DE0D8F8180000EB0A
:1008C000800005EB40003038C8F818002046E16889
:1008D0008847054602F09CF90028EED1012F0AD086
:1008E0002E2D08D12046E16888477F1C0546022F3F
:1008F00046F02006C4DBA069002803DA404246F037
:100900000106A061F00701D026F010066C2D0BD077
:10091000682D09D04C2D39D06A2D35D0742D35D0A5
:100920007A2D33D016E038E0E1682F46204688471C
:10093000B842054609D16C2F26D04FF48060E1689B
:10094000064320468847054604E06C2F1AD04FF432
:10095000807006430DB3A5F14100192802D8203557
:1009600046F400664A462946204626604E46FFF772
:1009700045FC80B101280BD0F61D26F0070000F1E0
:10098000080956E74020E4E78020D8E70020D6E7B2
:1009900006F104094DE7284652E7206A00F002B844
:1009A0009C24000030BCBDE8C09F4FF0000200B5A1
:1009B000134694469646203922BFA0E80C50A0E882
:1009C0000C50B1F12001BFF4F7AF090728BFA0E830
:1009D0000C5048BF0CC05DF804EB890028BF40F8FC
:1009E000042B08BF704748BF20F8022B11F0804F3E
:1009F00018BF00F8012B704730B5B0F10A0271F151
:100A000000034FEA900E4EEA817EB0EB0E0061EBE0
:100A100091014FEA101E4EEA017E10EB0E0041EBF1
:100A200011114FEA102E4EEA016E10EB0E0041EB51
:100A300011214FEA104E4EEA014E10EB0E0041EB31
:100A40001141401841F100014FEAD00040EA4170E5
:100A50004FEAD1014FEA810444EA907410EB80051B
:100A600044EB01046D1944EB0404521BA3414FF005
:100A7000000348BF0A3200D530BD401C41F10001DF
:100A800030BD2DE9F0470D4699469246044600F1E7
:100A900024080168880604D5E06921F0100121606E
:100AA00000E00120A84201DD471B00E00027A1690A
:100AB0007A1902EB0900081AA0612078C00602D456
:100AC0002046FFF7B9FC002608E0D4E901211AF816
:100AD00006009047206A401C761C20624E45F4DBDD
:100AE0002078C0060AD52046FFF7A6FC06E0D4E928
:100AF000012130209047206A401C2062381EA7F157
:100B00000107F4DC07E0D4E9012118F8050090475B
:100B1000206A401C2062281EA5F10105F3DC204656
:100B2000FFF7A0FC2078000602D50220BDE8F08780
:100B30000120FBE72DE9FF4F0C461E464FF0FF3723
:100B40008BB0D2E90001DDF860800A908A46C1F3DB
:100B50000A5505B93D46002108464FF00000BAF19C
:100B6000000F00F4400005DA00EB80004FF4400174
:100B700001EA50004FEA9059B9F1010F00DDB94682
:100B80000A9850EA4A000ED044F61050A5F2FF35FC
:100B900045432F14B8F1000F1ED07542291E1EDDEB
:100BA000C9F100021CE0B8F1010F4FF0000001D0C4
:100BB000302103E0F24305E02154401CB042FBDB4E
:100BC00030460022002121540B99C1F80880C1E968
:100BD00000200FB000F0BCB9BD1B6D1CDEE74A461B
:100BE00000DA694206A800F0FFFB06AB93E80700B5
:100BF00003AB83E8070050460A9901F028FC8DE812
:100C00000700A0F500501F3800900398002D0ADD62
:100C100042F21F014A460844002303A90390684694
:100C200001F092FE09E0A0F500504A461F3800236B
:100C300003A90390684601F09CFE8DE807000004BC
:100C4000000C03D04FF0FF30410800E01046B8F12F
:100C5000000F03D00022009215461EE0751E05D439
:100C6000FFF7CAFE303262556D1EF9D5B346012238
:100C7000084302D000227F1C04E02078302801D1F4
:100C800000227F1E002A099784D01DE0112D07DA6B
:100C9000FFF7B2FE303262556D1C50EA0102F5D109
:100CA000084302D00098C8B10EE00021681E05E09C
:100CB000235C625C63542254401E491C8142F7DB72
:100CC000AB46A81B401E0990002004F80B000B98AF
:100CD000099AC0F80880C0E9002B7AE711264FF086
:100CE000000857E72DE9F04F88460446D21D22F050
:100CF000070191B0D1E90001CDE90A0101F070FFCF
:100D000002460B98C00F01D02D2007E02068810714
:100D100001D52B2002E0202101EAC000032A09901E
:100D200001D0072A05DB03464146204600F01CFBA4
:100D30000BE12078800601D5E06900E00620B8F1DB
:100D4000650F814606D0B8F1660F18D0B8F1670F6D
:100D500070D131E00020B9F1110F009001DB1123B7
:100D600001E009F101030AAA01A90CA8FFF7E2FEBC
:100D7000DDE90C70002609F10105834647E00120FA
:100D80004B4600904FF000470AAA01A90CA8FFF7B4
:100D9000D1FEDDE90DB00C995D46002610B909F1D0
:100DA00001000D18B9EB050003D4C0F1FF3609F1BD
:100DB0000105A5EB09002BE0B9F1010F01DA4FF0B5
:100DC00001090020B9F1110F0090484601DD1123FF
:100DD00000E003460AAA01A90CA8FFF7ABFEDDE973
:100DE0000C704D4600268346207800070AD4AB4598
:100DF00000DA5D4601A8012D04DD411911F8011C3E
:100E0000302907D04F4502DA17F1040F04DA012028
:100E100082460FE06D1EEEE7002F02DCED1B3E4424
:100E200003E0781CA84200DD7D1CB81B00F1010A1C
:100E30004FF000472078000703D4AA4501DB4FF0AC
:100E4000FF3A0021B7F1004F0DF143088DF8431030
:100E500024D002202B23002F01DA7F422D230A21E8
:100E6000021EA0F1010000DC5FB197FBF1FC97FBD3
:100E7000F1F201FB1C7C17460CF1300C08F801CD97
:100E8000EEE7A8F1010003702188090501D545218D
:100E900000E06521A0F1010800F8011C09980FA9E4
:100EA000A1EB0807FF1D00B10120411901EBEA7019
:100EB000A1693844081A401EA0612078C00602D4F7
:100EC0002046FFF7B9FA099828B1D4E901219047E3
:100ED000206A401C20622078C00622D52046FFF7F9
:100EE000ABFA1EE0002E04DBB34502DD01A8805DF5
:100EF00000E03020D4E901219047206A401C2062A4
:100F0000761CAAF101005FEA000A0AD100F028FA73
:100F1000C0680168405CD4E901219047206A401C08
:100F20002062281EA5F10105DCDC07E0D4E90121DF
:100F300018F8010B9047206A401C2062381EA7F168
:100F40000107F3DC2046FFF78DFA032011B041E6DC
:100F500030BCBDE8C08F00002DE9F04F04460D46BF
:100F6000D21D22F0070089B0D0E9009748463946E3
:100F700001F036FE0246F80F01D02D2307E020686D
:100F8000810701D52B2302E0202101EAC0038DF85F
:100F900020300BB1012000E00020032A824601D05E
:100FA000072A04DB2946204600F0DEF93FE12078DD
:100FB000800601D40D2500E0E569C7F30A560D2D22
:100FC00049DA00214FEA175B08464FF00000002F76
:100FD00000F4400007DA00EB80004FF4400100EB22
:100FE000D07001EA60008115012901DD4FF0FF3169
:100FF00000224FEA850CBCF1180F06D31346ACF162
:1010000018004FF08052C24003E04FF4801323FADF
:101010000CF30CF10C0CBCF1200F04D3ACF1200C40
:1010200009FA0CF001E007FA0CF000294FF0004833
:1010300001DD18B90FE00ED140450CD319EB0209C0
:101040005F4121B9404502D19F4329EA0209BBEB28
:10105000175F00D0761C2088000502D57B487844B5
:1010600002E07A487844193808AA302302F80A3096
:10107000037C0AF10101002E0AF1020A53546A4668
:1010800002DC4FF0300101E04FF031014FF0010878
:101090008DF8001002D0A6F2FF3603E059EA4701AE
:1010A00000D06B4E002D02DC2178090704D54FF0EB
:1010B00002082E218DF80110C44600210BE0C7F371
:1010C00003433F01C35C491C6D1E02F8083005292B
:1010D00008F1010801DA002DF1DC00210CE000EB41
:1010E0001973491C1B786D1E082902F808304FEA55
:1010F000091908F1010801DA002DF0DC21688B06DE
:1011000002D516E0A8F10108E04505DD02EB080371
:1011100013F8013C302BF5D0B8F1000F09DD02EBDC
:10112000080313F8013C2E2B03D1090701D4A8F1C1
:101130000108002D05DD3E2102F808106D1E08F1A2
:101140000108407C002E02F8080008F1010804DACA
:101150002D20764202F8080002E02B2002F8080059
:101160000A214FF47A70864208F101080BDB96FBE6
:10117000F0F3303302F8083096FBF0F308F1010881
:1011800000FB136601E0642E0CDB642096FBF0F399
:10119000303302F8083096FBF0F308F1010800FB49
:1011A000136601E00A2E06DB96FBF1F0303002F800
:1011B000080008F1010896FBF1F001FB10603030E7
:1011C00002F80800A16908F1010808EB050202EB2A
:1011D0000A00081AA0612078C00602D42046FFF752
:1011E0002BF9216A08AE01EB0A00206204E0D4E981
:1011F000012116F8010B9047BAF1010AF7D22078C5
:10120000C00602D52046FFF717F96E4609E016F82A
:10121000010B3E280FD0D4E901219047206A401CE1
:101220002062B8F10108F2D22046FFF71BF909B09D
:10123000032000F00FB8206A2844206203E0D4E9BC
:101240000121302090476D1EEBD3F8E78E1C000083
:1012500002FCFFFF30BCBDE8C08F10B5436913B17D
:10126000AFF3008001E0FFF720F9012010BD1278F4
:1012700000F124010A7000224A700122EDE7116892
:101280004FF0FF32E9E710B5436913B1AFF30080C7
:1012900001E0FFF7A1F9012010BD128800F124013F
:1012A00082840022C2840122EDE711684FF0FF32F0
:1012B000E9E72DE9F04116460C46054600F048F8EE
:1012C000036893F80101012807D0FF2C12D8185D9C
:1012D00080B101202C70BDE8F081D3F807013246BF
:1012E000214603F20713C7182846BC46BDE8F04163
:1012F000002360474FF0FF30EDE7000000487047E3
:10130000180000207546FFF7F9FFAE460500694654
:10131000534620F00700854618B020B5FFF704F8C3
:10132000BDE820404FF000064FF000074FF00008E6
:101330004FF0000BAC46ACE8C009ACE8C009ACE823
:10134000C009ACE8C00921F007018D4670470000D4
:1013500010B500F005F8001D10BD00BFF118000029
:1013600000487047380000202DE9F0411F46044630
:1013700003260168072A01F4006004DB08B116A502
:1013800005E016A503E008B115A500E015A521F0BC
:1013900010002060A069C01EA0610FB1401EA061B6
:1013A0002046FFF749F84FB1D4E90121384690476C
:1013B000206A401C2062C01C206206E0206AFAE716
:1013C000D4E9012115F8010B9047761EF8D220468A
:1013D000FFF748F8BDE8F0814E414E006E616E00A7
:1013E000494E4600696E66002DE9F0478146164673
:1013F0008AB0354878440DC88DE80D0032487844ED
:10140000801C03AC0DC884E80D0041F69B300844F5
:10141000372190FBF1F290FBF1F5A5F1800501FB7E
:1014200012041B3C02D56442012000E00020DFF8DA
:1014300098A080460027FA44AAF1BE0A0EE0E00711
:101440000AD03246684607EB470101230AEB8101C7
:1014500001F08FFA8DE8070064107F1C002CEED19C
:10146000194F7F44AE3F19E0E80715D007EB041091
:101470000DF1180A90E80E008AE80E00C068F042EC
:1014800001D1981908903246012306A903A801F05A
:1014900070FA03AB83E807006D10641C002DE3D1E4
:1014A0004FF0010332466946B8F1000F03A802D09D
:1014B00001F04AFA01E001F05CFAC9E90001C9F85B
:1014C00008200AB0BDE8F0878819000010B504466E
:1014D000AFF300802046BDE81040FEF7F4BE0000E8
:1014E00030B44FF0013C50F8042B51F8043BCCFAD7
:1014F00052F4D51A20D1FCB950F8042B51F8043B12
:10150000CCFA52F4D51A17D1B4B950F8042B51F8CB
:10151000043BCCFA52F4D51A0ED16CB950F8042B16
:1015200051F8043BCCFA52F4D51A05D1002CDAD08C
:1015300030BC4FF00000704729BAB1FA81F111F0C8
:101540001801D1F120008440F2D1CA40CB4012F002
:10155000FF0213F0FF0330BCD01A70470149182076
:10156000ABBEFEE726000200704700007047000097
:101570007047000041F24C01C4F20201086840F0DB
:101580000200086040F20041C4F60001086820F43F
:1015900070200860086840F42020086040F2244170
:1015A000C4F60001086820F0FF000860086840F0F9
:1015B0004400086040F20841C4F60001086840F4A5
:1015C0007020086040F20C41C4F60001086820F465
:1015D00070200860086840F4A020086040F20441D0
:1015E000C4F60001086840F4C0700860704700004D
:1015F00082B0019052200090019845F20041C4F25F
:101600000001884221D1FFE741F25801C4F20201F2
:10161000086840F40010086041F28801C4F2020139
:10162000086820F440500860086840F48050086062
:1016300041F23801C4F20201086840F40010086069
:10164000086820F40010086053E0019845F6000196
:10165000C4F20001884221D1FFE741F25801C4F2EF
:101660000201086840F48000086041F28801C4F279
:101670000201086820F440400860086840F4804097
:10168000086041F23801C4F20201086840F48000A9
:101690000860086820F48000086029E0019845F699
:1016A0000041C4F20001884221D1FFE741F2580114
:1016B000C4F20201086840F40000086041F28801A9
:1016C000C4F20201086820F440300860086840F461
:1016D0008030086041F23801C4F20201086840F429
:1016E00000000860086820F400000860FFE7FFE7DA
:1016F000FFE70199086820F0010008600199086877
:1017000020F4805008600199086820F47060086037
:101710000199086840F08000086001990020086184
:101720000199086920F0704008610199086940F04A
:10173000E04008610199086940F08C000861019956
:10174000086940F40C4008610199086940F4801070
:1017500008610199086940F40030086101998868BE
:1017600020F400408860009840F4004001998860AF
:101770000199086820F4003008600199886820F415
:10178000004088600199486820F400604860019931
:10179000486840F0007048600199486840F4004093
:1017A00048600199086840F00100086002B0704785
:1017B00080B588B006908DF8171004928DF80F3020
:1017C0009DF80F00012803DBFFE7049820B9FFE72D
:1017D000FF208DF81F0054E0069800F09FF806984F
:1017E0009DF817109DF80F20002300F04FF8B0F17E
:1017F000FF3F04DCFFE7FF208DF81F0041E00020E1
:101800000290FFE702989DF80F10884211DAFFE777
:10181000FFE706988069C00708B9FFE7F9E7049871
:101820000299405C06998862FFE7029801300290B5
:10183000E8E7FFE706988169002049060029019042
:1018400009D4FFE70698806900F01001012080EAC2
:1018500011100190FFE70198C00708B1FFE7E9E721
:1018600006988069C006002804D5FFE7FF208DF8A0
:101870001F0006E0069800F03FF800208DF81F00DA
:10188000FFE79DF91F0008B080BD000084B0039001
:1018900002918DF807208DF8063000200090039803
:1018A00040680090009849F60001CFF600410840DA
:1018B00000909DF80600012805D1FFE7009840F44C
:1018C0008060009004E0009820F480600090FFE7C2
:1018D00002986FF39F209DF8071040EA014100989D
:1018E00008430090009840F400500090009803993D
:1018F0004860002004B0704781B0009000994868AB
:1019000040F480404860FFE7009880698006002826
:1019100001D4FFE7F8E701B07047000081B0009004
:10192000FFE7009880690004002801D5FFE7F8E789
:1019300001B0704783B042F20001C4F202010868AE
:1019400020F007000860086840F00200086041F2DB
:101950000001C4F20201086840F480700860FFE7EB
:1019600041F20000C4F2020000684005002801D4E2
:10197000FFE7F5E71020029041F20401C4F20201F2
:10198000086820F0F8500860029A086840EA02608F
:10199000086041F20001C4F20201086820F0807082
:1019A0000860FFE741F20000C4F202000068800115
:1019B000002801D5FFE7F5E741F20C01C4F202016E
:1019C0000191086820F003000860086840F00200F8
:1019D00008600868142262F30E200860086801227B
:1019E00062F306100860086820F0C06008600868AC
:1019F00040F08070086041F20001C4F20201086802
:101A000040F080700860FFE741F20000C4F202007D
:101A100000688001002801D4FFE7F5E741F20801E2
:101A2000C4F20201086820F003000860086840F072
:101A300003000860FFE741F20800C4F202000068FA
:101A400000F00C000C2801D0FFE7F4E741F2080198
:101A5000C4F20201086820F0F0000860086820F471
:101A6000E0600860086820F46050086041F20001FE
:101A7000C4F20201086820F080600860FFE741F2CC
:101A80000000C4F2020000684001002801D5FFE711
:101A9000F5E741F21001C4F202010091086820F458
:101AA000FE400860086840F4C0500860086840F4D0
:101AB00000300860086840F48030086041F200019E
:101AC000C4F20201086840F080600860FFE741F25C
:101AD0000000C4F2020000684001002801D4FFE7C2
:101AE000F5E741F28801C4F20201086820F44000E1
:101AF000086041F26001C4F20201086840F400107D
:101B0000086003B07047000080B586B0059004916E
:101B100003928DF80B3005980078E8BBFFE79DF83D
:101B20000B002A280AD1FFE704980190FEF740FC39
:101B300001990144002001F8010C10E09DF80B0010
:101B4000232804D1FFE704990020087006E00498D8
:101B50000DF10B010122FEF719FCFFE7FFE70398E7
:101B6000049A43F6F421C0F60001FEF7F9FB0220C7
:101B7000002100F0FDFA039840F20002C2F20002D8
:101B8000116852680123009300F036FC00F024FB3A
:101B9000009805990870FFE706B080BD41F24C013E
:101BA000C4F20201086840F00400086040F6000139
:101BB000C4F60001086820F003000860086840F0DF
:101BC00001000860086820F00C000860086840F018
:101BD00004000860086820F030000860086840F0E1
:101BE00010000860086820F0C0000860086840F035
:101BF00040000860086820F440700860086820F41D
:101C000040100860086820F440000860086820F070
:101C1000407008607047000084B00390002000907E
:101C20000290FFE702980399884216D2FFE700204E
:101C30000190FFE7019842F20F71884208DCFFE74C
:101C4000009801300090FFE7019801300190F1E722
:101C5000FFE7029801300290E4E704B0704700000B
:101C600085B003908DF80B109DF80B000146009194
:101C7000032814D80099DFE801F002060A0E0420B8
:101C80008DF80B000BE00A208DF80B0007E00B200D
:101C90008DF80B0003E00C208DF80B00FFE740F6F9
:101CA0001401C4F60001086820F00100086008680B
:101CB00060F00100086040F61000C4F60000006803
:101CC0009DF80B10C840C00728B9FFE7002001901D
:101CD0000198049056E040F61401C4F6000108682B
:101CE00020F002000860086860F00200086040F61A
:101CF0001000C4F6000000689DF80B10C840C00733
:101D000028B9FFE701200190019804903AE040F6DD
:101D10001401C4F60001086820F004000860086897
:101D200060F00400086040F61000C4F6000000688F
:101D30009DF80B10C840C00728B9FFE702200190AA
:101D4000019804901EE040F61401C4F600010868F2
:101D500020F008000860086860F00800086040F69D
:101D60001000C4F6000000689DF80B10C840C007C2
:101D700028B9FFE7032001900198049002E00020B9
:101D80000490FFE7049805B07047000080B58AB062
:101D900009900891079240F61401C4F600016FF013
:101DA0000F0008600120FFF737FF40F61000C4F66F
:101DB0000000016801F010010591016801F48061E3
:101DC0000491016801F400610391006800F48050FF
:101DD0000290002000F024F90598F8B9FFE70020F0
:101DE0008DF81A0009989DF81A10FFF739FF8DF841
:101DF0001B009DF81B1040F20800C2F2000000EB2F
:101E000081009DF81A10405C8DF80700079808992A
:101E1000099A9DF80730FFF777FE6CE00498F8B94F
:101E2000FFE701208DF81A0009989DF81A10FFF7B6
:101E300017FF8DF81B009DF81B1040F20800C2F23E
:101E4000000000EB81009DF81A10405C8DF807003F
:101E500007980899099A9DF80730FFF755FE49E061
:101E60000398F8B9FFE702208DF81A0009989DF849
:101E70001A10FFF7F5FE8DF81B009DF81B1040F2BD
:101E80000800C2F2000000EB81009DF81A10405CCF
:101E90008DF8070007980899099A9DF80730FFF711
:101EA00033FE26E00298F8B9FFE703208DF81A0008
:101EB00009989DF81A10FFF7D3FE8DF81B009DF8C6
:101EC0001B1040F20800C2F2000000EB81009DF8F8
:101ED0001A10405C8DF8070007980899099A9DF838
:101EE0000730FFF711FE03E0079900200870FFE7B5
:101EF000FFE7FFE7FFE70AB080BD000080B5A6B0AE
:101F00000020029025908DF893000DF1520003906F
:101F100040210191FEF76BFA01990DF11200FEF7D5
:101F200066FAFFF707FDFFF725FB45F20040C4F214
:101F30000000FFF75DFBFFF731FE00F08FF802981D
:101F400000F06EF80299022000F012F9039840F2B6
:101F50000002C2F2000211685268012300F04CFA3C
:101F600000F03AF9FFE70DF152000DF112010DF109
:101F70009302FFF70BFFF6E781B08DF803008DF8B1
:101F800002108DF801209DF803007F2805DCFFE793
:101F90009DF80200402801DBFFE73FE040F27800B7
:101FA000C2F20000007940B1FFE79DF80100B0FAED
:101FB00080F040098DF80100FFE79DF8010001283D
:101FC00016D1FFE79DF8022002F00701012000FA78
:101FD00001F39DF803006FF0700101EA021142184D
:101FE00040F28001C2F20001885C1843885415E079
:101FF0009DF8022002F00701012000FA01F39DF88C
:1020000003006FF0700101EA0211421840F28001F2
:10201000C2F20001885C98438854FFE701B0704722
:1020200082B08DF8070000200090FFE700990020A3
:10203000B0EB912F10D1FFE79DF80700002818BFE3
:10204000FF20009A40F28001C2F200018854FFE7AD
:10205000009801300090E9E702B0704780B584B085
:1020600000F074F800200390FFE7039848F29F61A6
:10207000C0F20101884205D8FFE7FFE7039801306D
:102080000390F2E70020019000F084F820200090F7
:1020900000F064F9019800F061F9B02000F05EF9F9
:1020A000C82000F05BF9019800F058F9102000F00A
:1020B00055F9402000F052F9FF2000F049F8A12026
:1020C00000F04CF9A62000F049F9A82000F046F9EC
:1020D0003F2000F043F9A42000F040F9D32000F0A5
:1020E0003DF9019800F03AF9D52000F037F9F020D9
:1020F00000F034F9D92000F031F9222000F02EF957
:10210000DA2000F02BF9122000F028F9DB2000F093
:1021100025F9009800F022F98D2000F01FF9142015
:1021200000F01CF90120029000F034F80198FFF74C
:1021300077FF00F051F8019A029840F27801C2F25C
:1021400000010A804A80487104B080BD70470000D9
:1021500080B582B08DF8070081208DF8060000F070
:10216000FDF89DF8070000F0F9F802B080BD00000E
:1021700081B08DF803008DF802109DF8030040F245
:102180007801C2F2000108809DF80200488001B089
:102190007047000080B582B08DF807009DF80700F9
:1021A00050B1FFE7AF208DF8060040F27801C2F28F
:1021B00000010120887109E0AE208DF8060040F290
:1021C0007801C2F2000100208871FFE79DF8060047
:1021D00000F0C4F802B080BD80B582B000208DF858
:1021E0000700FFE79DF8070007281EDCFFE79DF8C2
:1021F0000700B030C0B200F0B1F8002000F0AEF837
:10220000102000F0ABF89DF8071040F28000C2F2F9
:10221000000000EBC110802100F0B8F8FFE79DF846
:10222000070001308DF80700DCE702B080BD000038
:1022300080B588B0069205918DF813008DF81230A4
:102240009DF81300202805DBFFE79DF813007F2889
:1022500004DBFFE700208DF81F007BE040F27800F0
:10226000C2F2000000889DF81410084480280BDC9E
:10227000FFE740F27800C2F2000040889DF8151098
:102280000844412804DBFFE700208DF81F0061E0CF
:1022900000200390FFE703989DF8151088424BD269
:1022A000FFE706989DF8131020399DF81520039B31
:1022B00011FB023130F81100029000200190FFE77D
:1022C00001989DF81410884231D2FFE702980199D5
:1022D00088400004002811D5FFE740F27801C2F2DF
:1022E00000010888019A10444988039A11449DF816
:1022F0001220C0B2C9B2FFF73FFE13E040F27801EE
:10230000C2F200010888019A10444988039A1144D6
:102310009DF81220B2FA82F25209C0B2C9B2FFF798
:102320002BFEFFE7FFE7019801300190C8E7FFE7C8
:10233000039801300390AEE79DF8142040F2780135
:10234000C2F200010888104408809DF813008DF83F
:102350001F00FFE79DF81F0008B080BD80B582B068
:102360008DF8070000208DF805009DF807008DF816
:10237000060045F20040C4F2000078210DF105028C
:102380000223FFF715FA02B080BD000080B5ADF55D
:10239000826DCDF80C04CDF8081440208DF80300B0
:1023A0000020CDF80404FFE7DDF80404DDF808148C
:1023B000884210D2FFE7DDF80C04DDF80414405C1D
:1023C0000DF1030211444870FFE7DDF80404013009
:1023D000CDF80404E8E7DDF808040130C3B245F2A3
:1023E0000040C4F2000078210DF10302FFF7E0F98C
:1023F0000DF5826D80BD000080B586B0049203911A
:1024000002908DF80730FFE702980078B0B1FFE73F
:10241000029800789DF807300399049AFFF708FFA7
:1024200002990978884205D0FFE7029800788DF874
:10243000170008E0029801300290E5E70298007862
:102440008DF81700FFE79DF8170006B080BD5FEA22
:10245000400C08BF91F0000F4FEA8C234FEAC122D5
:1024600043EA51514FEA1C5018BF00F5F0404FEAC3
:10247000300018BF41F000415FEA6C5C00F0298039
:10248000BCF1FF3F08BF40F080407047130C06BF0F
:1024900012044FF0100C4FF0000C130E04BF120288
:1024A0000CF1080C130F04BF12010CF1040C930F74
:1024B00004BF92000CF1020CD30F04BF52000CF1C8
:1024C000010C11464FF00002A0F11F00A0EB0C0020
:1024D000704711F0004F08BF704731F000413FF4E2
:1024E000D5AF0B0C06BF09044FF0100C4FF0000CD9
:1024F0000B0E04BF09020CF1080C0B0F04BF0901FD
:102500000CF1040C8B0F04BF89000CF1020CCB0FF3
:1025100004BF49000CF1010CCCF1200322FA03F3B3
:1025200041EA030102FA0CF2A0EB0C0000F10100F9
:102530007047000023F07F4720F07F4C80EA0300C3
:1025400000F00040ACEB070303F57C5303F1FF03FD
:102550002DE9804909B44FEA144324EA03484FEABD
:10256000154B25EA0B4E0FF2042606EB13273E7897
:1025700003FB0667C7F5000707FB06F64FEAD646DA
:1025800006F102064FEA543707FB066CCCF1005CFB
:102590004FEA1C472CEA074C0CFB06F507FB06F438
:1025A00004EB15464FEA961649085FEA320234BF3B
:1025B00000204FF000404FEAD13706FB07FC4FEAFE
:1025C0001C4C0CFB0BF7D21B03FB0CF761EB070158
:1025D0000CFB0EF7B0EB074072EB17420CFB08F751
:1025E00034BFA2EB0742B2EB074261EB17414FEA5F
:1025F0000C444FEA910706FB07FC4FEA1C4C0CFB0E
:102600000BF7B0EBC74072EB573203FB0CF734BF4C
:10261000A2EBC742B2EBC74261EB57310CFB0EF79E
:10262000B0EBC70072EB57720CFB08F734BFA2EB9C
:10263000C702B2EBC70261EB57714FEA816141EA11
:1026400092114FEA826242EA90124FEA806004EBF4
:10265000CC04039F4FEAD13706FB07FC4FEA1C4C22
:102660000CFB0BF7D21B03FB0CF761EB07010CFB18
:102670000EF7B0EB074072EB17420CFB08F734BFC4
:10268000A2EB0742B2EB074261EB17414FEA8C55D0
:1026900004EB9C244FEA910706FB07FC4FEA1C4C15
:1026A0000CFB0BF7B0EBC74072EB573203FB0CF798
:1026B00034BFA2EBC742B2EBC74261EB57310CFB10
:1026C0000EF7B0EBC70072EB57720CFB08F734BF84
:1026D000A2EBC702B2EBC70261EB57714FEA81610F
:1026E00041EA92114FEA826242EA90124FEA806018
:1026F00015EB4C2544F100044FEAD13706FB07FCEB
:102700004FEA1C4C0CFB0BF7D21B03FB0CF761EBE5
:1027100007010CFB0EF7B0EB074072EB17420CFB06
:1027200008F734BFA2EB0742B2EB074261EB174157
:102730004FEA813141EA92414FEA823242EA9042C5
:102740004FEA80304FEA0C7615EB1C1544F100047B
:1027500048EA03434EEA0B484FF0000EB2EB080C78
:1027600071EB030724BF624639464EEB0E0E4FF065
:10277000000B0018524149414BEB0B0BB2EB080C1C
:1027800071EB03077BF1000B24BF624639464EEB29
:102790000E0E4FF0000B0018524149414BEB0B0B52
:1027A000B2EB080C71EB03077BF1000B24BF624610
:1027B00039464EEB0E0E51EA020718BF46F00106ED
:1027C00016EB0E7655F1000254F1000103D5BDE879
:1027D0008901BDE80088BDE88901BDE80048B61957
:1027E000524141EB0101A3F10103704780807F7EDC
:1027F0007D7C7B7A79787776767574737271717077
:102800006F6E6E6D6C6C6B6A6A6968686766666528
:102810006464636362616160605F5F5E5E5D5D5CB6
:102820005C5B5B5A5A595958585757565655555527
:102830005454535352525251515050504F4F4F4E87
:102840004E4D4D4D4C4C4C4B4B4B4A4A4A494949D5
:102850004848484747474746464645454544444417
:102860004443434343424242424141419C46002B40
:1028700030D477002BD04FEA37071CB503B44FF0A4
:1028800010004FF01001BAF1000F06D0BCF1000F9C
:10289000DCBF40F0080040F008014FF000000FBC22
:1028A000BDE810400BF1010BBBF1010F08BF5FEA5F
:1028B000170722BF12F1010211F101014FF000418F
:1028C00043F1000300F0004043EA00007047F9D3F1
:1028D0005708D0E746EA06464FEA164613F1400F7E
:1028E0001FDD13F1200FDFBF16430A4600212033FE
:1028F0005B42BED0C3F1200746EA06464FEA1646C1
:1029000002FA07F746EA070622FA03F2C3F12007A4
:1029100001FA07F742EA070221FA03F14FF0000338
:10292000A7E746EA020646EA06464FEA164646EAA0
:102930000106BCBF46EA0646360C4FF000034FF0D6
:1029400000024FF0000194E72DE9804C70B49A46E4
:10295000934691E8380007C831EA400C48BF34EA92
:10296000430C03D5FFF7E6FDFFF780FFF0BCBDE8A1
:10297000008C2DE9804C70B49A46934691E838005B
:1029800007C810F0804F08BF13F0804F03D100F04C
:1029900005F8FFF76BFFF0BCBDE8008C20F07F4727
:1029A00023F07F4C80EA030000F0004007EB0C03AB
:1029B000A3F57C53A3F1FE0392F0000F00F0B38067
:1029C00095F0000F00F077802DE901494FEA1140A2
:1029D00021EA00484FEA144624EA064700FB06FCB9
:1029E00008FB06F607FB08F818EB06484CEB164CFC
:1029F00000FB07F718EB07484CEB17404FEA124B68
:102A000022EA0B4E4FEA154625EA06470BFB06FC69
:102A10000EFB06F607FB0EFE1EEB064E4CEB164CAD
:102A20000BFB07F71EEB074E4CEB174B18EB0B0895
:102A300040F1000018EB0E0B58EB000840F10000CD
:102A40008F1A4FF000014FF000063CBFC943661BD0
:102A500014BFB5EB040C00213CBFC943F61B4FEA81
:102A6000174427EA04454FEA1C472CEA074C04FBAD
:102A7000076205FB07F70CFB05F616EB074642EB72
:102A8000174204FB0CFC16EB0C4642EB1C421BEB02
:102A9000060658EB020241414EEA8E0E46EA9E06B9
:102AA00001D5BDE80189B619524141EB0101A3F1FD
:102AB0000103BDE801894FEA144524EA05464FEABF
:102AC000114721EA074C05FB07F406FB07F70CFB4F
:102AD00006F111EB074144EB174405FB0CFC11EB2D
:102AE0000C4144EB1C444FEA124722EA074C05FB19
:102AF00007F206FB07F70CFB06F616EB074642EB60
:102B0000174205FB0CFC16EB0C4642EB1C456A1801
:102B100054F1000148BF7047B619524141EB010121
:102B2000A3F10103704795F0000F37D04FEA11422F
:102B300021EA02464FEA144724EA074C02FB07F158
:102B400006FB07F70CFB06F414EB074441EB1741B7
:102B500002FB0CFC14EB0C4441EB1C414FEA154703
:102B600025EA074C02FB07F506FB07F70CFB06F608
:102B700016EB074645EB174502FB0CFC16EB0C4623
:102B800045EB1C42121951F1000148BF7047B619BC
:102B9000524141EB0101A3F1010370474FEA144593
:102BA00024EA05464FEA114721EA074C05FB07F1E5
:102BB00006FB07F70CFB06F212EB074241EB17414D
:102BC00005FB0CFC12EB0C4251EB1C414FF00006D4
:102BD00048BF7047921841EB0101A3F10103704710
:102BE00003B401984100009850EAC12018BF0420A6
:102BF0004A0D18BF40F0010040F2FF72B2EB515F86
:102C000008BF40F00200012808BF052002B070474D
:102C100030380A2801D20120704700207047000098
:102C200010B500290AD00878002807D00548784454
:102C3000FEF756FC002801D0002010BD0248784461
:102C400010BD0000EA0E0000E20E000010B50029E1
:102C50000AD00878002807D005487844FEF740FCE1
:102C6000002801D0002010BD0248784410BD0000AB
:102C7000DA0E0000D20E0000F1EE100A4FF6FF71DE
:102C8000C0F2C03120EA010040F04070E1EE100ACD
:102C90007047FEF727B8FEF75FB90000000000009C
:102CA0000000000030313233343536373839414294
:102CB000434445464030580030313233343536379E
:102CC000383961626364656640307800040000084A
:102CD000000000000000000200010000103031324E
:102CE000333435363738396162636465667870002D
:102CF0003031323334353637383941424344454632
:102D00005850000002400000000000A00000000039
:102D100005400000000000C8000000000C4000005A
:102D20000000409C00000000194000000020BCBED4
:102D30000000000034400000BFC91B8E00000004EA
:102D4000B5400000504BCFD06607E2CF0100000035
:102D50006C4100003E8251AADFEEA7340100000062
:102D6000D9420000DCB5A0E23A301F97FFFFFFFF19
:102D7000B4450000FD25A0C8E9A3C14FFFFFFFFF38
:102D8000FF3F00000000008000000000FF3F000047
:102D900000000080000000000000000000000000B3
:102DA0000000000000000000000000000000000023
:102DB0000000000000000000000000000000000C07
:102DC000000C000C000C000C000C000C000C000CA3
:102DD000000C000C0000000C000C000000000000C3
:102DE0000000001B001B001B001B001B000000005C
:102DF00000000000000000000000000000000000D3
:102E00000000000000008019801980198019C07F1F
:102E1000C07F80190033C07FC07F00330033003390
:102E200000330000000000000000001E003F80751D
:102E300080650074003C001E000780058065806589
:102E40008075003F001E00040004000000000070B8
:102E500000D840D8C0D880D900730006000C801B71
:102E6000C036C066C046C0068003000000000000F7
:102E70000000001E003F003300330033001E000C32
:102E8000C03CC066806380618063C03E801C0000DF
:102E9000000000000000000C000C000C000C000CF6
:102EA0000000000000000000000000000000000022
:102EB0000000000000000000800000010003000688
:102EC00000060004000C000C000C000C000C000CB0
:102ED000000400060006000300018000002000102E
:102EE0000018000C000C0004000600060006000696
:102EF000000600060004000C000C00180010002062
:102F00000000000C002D003F001E003300000000F8
:102F100000000000000000000000000000000000B1
:102F200000000000000000000000000C000C000C7D
:102F3000000CC0FFC0FF000C000C000C000C0000D7
:102F40000000000000000000000000000000000081
:102F50000000000000000000000000000000000071
:102F60000000000C000C0004000400080000000039
:102F70000000000000000000000000000000001E33
:102F8000001E000000000000000000000000000023
:102F90000000000000000000000000000000000031
:102FA00000000000000000000000000C000C000009
:102FB00000000000000000030003000300060006FC
:102FC00000060006000C000C000C000C0018001895
:102FD00000180000000000000000001E003F003349
:102FE000806180618061806D806D806180618061C1
:102FF0000033003F001E000000000000000000063B
:10300000000E001E00360026000600060006000620
:103010000006000600060006000600000000000092
:103020000000001E003F807380618061800100030A
:103030000006000C001800300060807F807F0000D8
:10304000000000000000001C003E0063006300035D
:10305000000E000E00038001800180618073003F3C
:10306000001E00000000000000000006000E000E20
:10307000001E001E0016003600360066807F807F2E
:103080000006000600060000000000000000007FAF
:10309000007F006000600060006E007F8063800140
:1030A000800180618073003F001E0000000000006E
:1030B0000000001E003F803380610060006E007FD2
:1030C00080738061806180618033003F001E00005A
:1030D000000000000000807F807F8001000300036B
:1030E00000060006000C000C000C00080018001878
:1030F00000180000000000000000001E003F806378
:10310000806180610021001E003F806180618061DC
:103110008061003F001E0000000000000000001E53
:10312000003F00738061806180618073803F801DFB
:10313000800180610073003F001E0000000000005D
:1031400000000000000000000000000C000C000067
:1031500000000000000000000000000C000C000057
:10316000000000000000000000000000000000005F
:10317000000C000C00000000000000000000000C2B
:10318000000C000400040008000000000000000023
:1031900080008003000E003800600038000E8003BD
:1031A000800000000000000000000000000000009F
:1031B000000000000000807F807F00000000807F12
:1031C000807F000000000000000000000000000000
:1031D000000000000000000000400070001C00071C
:1031E00080010007001C007000400000000000008B
:1031F000000000000000001F803FC071C060C000E0
:10320000C00180030007000E000C000C0000000C41
:10321000000C0000000000000000001E003F803194
:1032200080718063806F806D806D806F80670060CB
:103230000032003E001C0000000000000000000EF4
:10324000000E001B001B001B001B80318031803FE3
:10325000803F8031C060C060C0600000000000009E
:103260000000007C007E0063006300630063007E5A
:10327000007E0063806180618063007F007E0000CB
:10328000000000000000001E003F803180610060EF
:103290000060006000600060006080618031003F7D
:1032A000001E0000000000000000007C007F0063A2
:1032B0008063806180618061806180618061006382
:1032C0000063007E007C0000000000000000807FA2
:1032D000807F0060006000600060007F007F006011
:1032E000006000600060807F807F000000000000C0
:1032F0000000807F807F0060006000600060007FD1
:10330000007F0060006000600060006000600000FE
:10331000000000000000001E003F8031806100605E
:103320000060006080638063806180618031803FE5
:10333000001E0000000000000000806180618061CC
:10334000806180618061807F807F80618061806139
:103350008061806180610000000000000000003F8B
:10336000003F000C000C000C000C000C000C000CCA
:10337000000C000C000C003F003F000000000000AB
:1033800000008001800180018001800180018001B6
:1033900080018001806180618073003F001E000019
:1033A000000000000000C0608061006300660066ED
:1033B000006C0078007C00660066006380618061BC
:1033C000C0600000000000000000006000600060BD
:1033D00000600060006000600060006000600060ED
:1033E0000060807F807F0000000000000000C0714E
:1033F000C071C07BC07AC06AC06AC06EC064C06061
:10340000C060C060C060C060C0600000000000001C
:10341000000080718071807980798079806D806D05
:10342000806D80658067806780678063806300004F
:10343000000000000000001E003F0033806180613A
:103440008061806180618061806180610033003FC4
:10345000001E0000000000000000007E007F80636E
:103460008061806180618063007F007E0060006019
:103470000060006000600000000000000000001E0E
:10348000003F003380618061806180618061806184
:10349000806580670033803F401E00000000000010
:1034A0000000007E007F8063806180618063007F18
:1034B000007E00660063006380618061C060000080
:1034C000000000000000000E001F8031803100303D
:1034D0000038001E00078003806180618031003F5A
:1034E000001E0000000000000000C0FFC0FF000C34
:1034F000000C000C000C000C000C000C000C000C6C
:10350000000C000C000C00000000000000008061B6
:1035100080618061806180618061806180618061A3
:10352000806180618073003F001E00000000000089
:103530000000C060C060C060803180318031001BFD
:10354000001B001B001B000E000E000E00040000FC
:10355000000000000000C0C0C0C0C0C0C0C0C0C0EB
:10356000C0CC804C804C805E8052805280738061E1
:1035700080610000000000000000C0C08060806129
:103580000033003B001E000C000C001E001F003B1F
:1035900080718061C0C00000000000000000C0C059
:1035A0008061806100330033001E001E000C000C9F
:1035B000000C000C000C000C000C000000000000CF
:1035C0000000803F803F8001000300030006000CE4
:1035D000000C0018001800300060807F807F000021
:1035E00000000000000F000F000C000C000C000C8D
:1035F000000C000C000C000C000C000C000C000C6B
:10360000000C000C000F000F00000018001800183C
:10361000000C000C000C000C000600060006000662
:10362000000300030003000000000000001E001E55
:10363000000600060006000600060006000600065A
:10364000000600060006000600060006001E001E1A
:103650000000000C000C001E0012003300338061DB
:103660008061000000000000000000000000000079
:10367000000000000000000000000000000000004A
:10368000000000000000000000000000000000003A
:1036900000000000E0FF0000000000380018000CEF
:1036A000000000000000000000000000000000001A
:1036B000000000000000000000000000000000000A
:1036C000000000000000001F803F80618001801F1B
:1036D000803F80618063807FC03800000000000070
:1036E00000000060006000600060006E007F80737A
:1036F00080618061806180618073007F006E000066
:103700000000000000000000000000000000001E9B
:10371000003F807380610060006080618073003FC3
:10372000001E0000000000000000800180018001F8
:103730008001801D803F8073806180618061806135
:103740008073803F801D000000000000000000002A
:10375000000000000000001E003F00738061807FB9
:10376000807F00608071003F001E000000000000AC
:103770000000C007C00F000C000C807F807F000C91
:10378000000C000C000C000C000C000C000C0000E5
:10379000000000000000000000000000801D803FCD
:1037A000807380618061806180618073803F801D53
:1037B00080018063007F003E0000006000600060C8
:1037C0000060006F807F80718061806180618061B6
:1037D0008061806180610000000000000000000640
:1037E000000600000000003E003E00060006000645
:1037F00000060006000600060006000000000000AB
:103800000006000600000000003E003E0006000624
:103810000006000600060006000600060006004638
:10382000007E003C0000006000600060006080617D
:1038300000630066006C007C0076006300638061BA
:10384000C0600000000000000000003E003E0006D6
:103850000006000600060006000600060006000638
:103860000006000600060000000000000000000046
:1038700000000000000080DDC0FFC0CEC0CCC0CC86
:10388000C0CCC0CCC0CCC0CCC0CC0000000000007C
:1038900000000000000000000000006F807F8071C9
:1038A00080618061806180618061806180610000F1
:1038B0000000000000000000000000000000001EEA
:1038C000003F807380618061806180618073003F10
:1038D000001E0000000000000000000000000000CA
:1038E000006E007F80738061806180618061807381
:1038F000007F006E0060006000600060000000005B
:1039000000000000801D803F8073806180618061C5
:1039100080618073803F801D800180018001800173
:10392000000000000000000000000067803F003938
:103930000030003000300030003000300030000037
:103940000000000000000000000000000000001E59
:10395000803F80610060007F803F80018061007F48
:10396000001E000000000000000000000008001819
:103970000018007F007F00180018001800180018B9
:103980000018801F800F00000000000000000000F1
:1039900000000000000080618061806180618061C2
:1039A000806180618063807F803D000000000000B6
:1039B00000000000000000000000C0608031803185
:1039C0008031001B001B001B000E000E00060000D3
:1039D000000000000000000000000000000080DD8A
:1039E00080DD80DD0055005500550077007700220E
:1039F00000220000000000000000000000000000A5
:103A00000000806100330033001E000C000C001E1B
:103A1000003300338061000000000000000000005F
:103A20000000000080618061803100330033001BA2
:103A3000001B001B000E000E000E001C007C00701E
:103A400000000000000000000000C07FC07F800177
:103A500000030006000C00180030C07FC07F00008B
:103A60000000000080038007000600060006000634
:103A70000006000E001C001C000E000600060006DA
:103A80000006000680078003000600060006000608
:103A900000060006000600060006000600060006F6
:103AA0000006000600060006000600060038003C7E
:103AB000000C000C000C000C000C000E00070007AE
:103AC000000E000C000C000C000C000C003C003838
:103AD000000000000000000000000000000080382E
:103AE000807F004700000000000000000000000090
:103AF0000000000025730000483C00080000002082
:103B000018000000C4010008603C000818000020F4
:103B1000680A0000E00100081C00000043000000EB
:103B2000F8FFFFFF0C0000000E0000000F00000077
:103B30002E0000001001000043000000F8FFFFFF0E
:103B400000404040404040404040414141414140B0
:103B50004040404040404040404040404040404065
:103B600040050202020202020202020202020202F4
:103B700002202020202020202020200202020202F9
:103B80000202909090909090101010101010101051
:103B9000101010101010101010101010020202025D
:103BA00002028888888888880808080808080808A1
:103BB000080808080808080808080808020202029D
:103BC00040000000000000000000000000000000B5
:103BD00000000000000000000000000000000000E5
:103BE00000000000000000000000000000000000D5
:103BF00000000000000000000000000000000000C5
:103C000000000000000000000000000000000000B4
:103C100000000000000000000000000000000000A4
:103C20000000000000000000000000000000000094
:103C30000000000000000000000000000000000084
:103C400000000000000000000B120000982D00088A
:103C50003132334134353642373839432A30234400
:040000050800018965
:00000001FF
