:020000040800F2
:10000000A00A0020D5020008130300081503000809
:1000100017030008190300081B0300080000000074
:100020000000000000000000000000001D030008A8
:100030001F0300080000000021030008230300083C
:1000400025030008250300082503000825030008F0
:1000500025030008250300082503000825030008E0
:1000600025030008250300082503000825030008D0
:1000700025030008250300082503000825030008C0
:1000800025030008250300082503000825030008B0
:1000900025030008250300082503000825030008A0
:1000A0002503000825030008250300082503000890
:1000B000250300082503000825030008391500085A
:1000C000351500082503000825030008250300084E
:1000D0002503000825030008250300082503000860
:1000E0002503000825030008250300082503000850
:1000F0002503000825030008250300082503000840
:10010000250300082503000825030008250300082F
:10011000250300082503000825030008250300081F
:10012000250300082503000825030008250300080F
:1001300025030008250300082503000825030008FF
:1001400025030008250300082503000825030008EF
:1001500025030008250300082503000825030008DF
:1001600025030008250300082503000825030008CF
:1001700025030008250300082503000800000000EF
:10018000250300082503000800F002F800F092F8AB
:100190000AA090E8000C82448344AAF10107DA45E2
:1001A00001D100F087F8AFF2090EBAE80F0013F0A2
:1001B000010F18BFFB1A43F001031847CC5700008A
:1001C000EC570000103A24BF78C878C1FAD852071B
:1001D00024BF30C830C144BF04680C6070470000C1
:1001E0000023002400250026103A28BF78C1FBD840
:1001F000520728BF30C148BF0B6070476E2900F01E
:100200009781702900F0DD82662904F0F680652967
:1002100004F0F380672904F0F080612904F0EF8096
:1002200003681B0A28BF41F08001692900F044815E
:10023000642900F04181752900F03E816F2900F0AA
:100240006B82782900F0A982E92900F00582E4296F
:1002500000F00282F52900F0FF81EF2900F06882AA
:10026000F82900F0A8820368DB0928BF41F080016B
:10027000632900F0DE87732900F0E387E32900F0AB
:10028000EE87F32900F0F387002070471FB504F0D4
:10029000A7F801F047F804000020002103F02AFC31
:1002A000401C60600020002103F00EFCE0601FBDD8
:1002B00010B510BD01F008F81146FFF7E7FF01F097
:1002C00027FE01F0E5F803B4FFF7F2FF03BC01F0ED
:1002D00029F9000017481849184B99423CBF50F8BB
:1002E000042B41F8042BF8D3154B16494FF00002AC
:1002F0008B4238BF43F8042BFAD3DFF84C00016877
:1003000041F470010160BFF34F8FBFF36F8F0F484F
:100310000047FEE7FEE7FEE7FEE7FEE7FEE7FEE753
:10032000FEE7FEE7FEE7000009480A490A4A0B4BD0
:1003300070470000D85A000800000020100000207C
:1003400010000020A00A002088ED00E089010008CC
:10035000A0040020A00A0020A0060020A006002083
:100360000FB41CB5084B06AA7B446946009005985B
:1003700000F0F7F804460020694600F005F9204631
:100380001CBC5DF814FB00001D020000002800DA10
:10039000404270474FF000020429C0F0128010F074
:1003A000030C00F0E282CCF1040CBCF1020F18BF88
:1003B00000F8012BA8BF20F8022BA1EB0C0100F0E4
:1003C000D4BA5FEAC17C24BF00F8012B00F8012BEE
:1003D00048BF00F8012B704770477047704710B551
:1003E00000F0E8FA006810BD10B5044600F0E2FA2B
:1003F000046010BD70B5044685690068C10601D56A
:10040000302600E02026C00707D070BDD4E90121C6
:1004100030469047206A401C20626D1EF6D570BDA4
:1004200070B5044685690078C00707D170BDD4E96E
:10043000012120209047206A401C20626D1EF6D5C5
:1004400070BD09684A0501D540B27047C905FCD5A1
:1004500000B2704709684A0501D5C0B27047C905A6
:10046000FCD580B2704770B50C460546012A05D010
:100470002878800600D5EA69002302E0012305E020
:100480005B1C934202D2E05C0028F9D1A869E6180F
:10049000C01AA861286A184428622846FFF7AAFFF4
:1004A00004E0D5E9012114F8010B9047B442F8D3D8
:1004B0002846FFF7B5FF70BD2DE9F0410646002440
:1004C00010687529314616A510D0FFF7BAFF00282D
:1004D00002DA404213A507E031688A0701D512A568
:1004E00002E0490704D511A5012401E0FFF7B2FF9E
:1004F00000210A2206F1240709E0B0FBF2FCB0FB60
:10050000F2F302FB1C00303078541846491C0028D6
:10051000F3D123462A463046BDE8F04100F093BAB5
:10052000000000002D0000002B0000002000000053
:1005300011680268006A530501D508700AE0D30506
:1005400001D5088006E0130603D5C217C1E90002F1
:1005500000E008600120704701694A1C02610878C8
:10056000704700B58FB0CDE90131002105910549F3
:100570007944CDE903101146684600F02DF90FB01B
:1005800000BD0000E5FFFFFF0A6802F8010B0A60EA
:10059000704700002DE9FF5F15468A460446DFF8E4
:1005A000AC80F8440027D8E900103E46CDE90010A1
:1005B00010E03AF816106A4602A800F05CFE411CF2
:1005C00007D02178890603D5E269391891420DD800
:1005D0000744761C2078800602D5E069B84205DD24
:1005E000AE42E6DB3AF816000028E2D1A069C01B53
:1005F000A0612046FFF7FEFED8E90010CDE900100B
:10060000002017E03AF818106A4602A800F033FEFE
:10061000B0F1FF3F81460BD000250DF1080B05E03E
:10062000D4E901211BF8050090476D1C4D45F7D317
:1006300008F10100B0428046E4DB206A38442062C1
:100640002046FFF7EDFE00F003B800005E3E00001C
:100650003FBCBDE8C09F00002DE9F0418046D21D9F
:1006600022F007020025D2E90002F52915A614D0D0
:10067000011E72F1000106DA0023D0EB030063EBE8
:10068000020211A608E0D8F800108B0701D50FA6CA
:1006900002E0490701D50EA601251146002408F104
:1006A000240704E000F08AF930323A55641C50EA1D
:1006B0000102F7D12B46324621464046BDE8F041C3
:1006C00000F0C1B9000000002D0000002B00000068
:1006D0002000000030B4002100F1240408E002F002
:1006E0000705D208303542EA4372DB086554491CDD
:1006F00052EA0305F3D10468002310A2250708D5A8
:1007000004F020040C4304D0C46901230CA2641E2D
:10071000C46130BC00F097B910B50446214610689A
:10072000FFF798FE02462046BDE810400023D1E7BF
:10073000D21D22F00701D1E90023CBE70000000021
:1007400030000000F0B40D460188090502D5214CA7
:100750007C4402E01F4C7C440E34002100F124064E
:1007600008E002F00F071209E75D42EA03721B0975
:100770007754491C52EA0307F3D102780023120789
:1007800004D5702D06D009B1022311342246F0BCE5
:1007900000F059B901231034F8E770B504460D464E
:1007A00021461068FFF756FE024629462046BDE85E
:1007B00070400023C6E7D21D22F00703D3E90023CF
:1007C000C0E70368126843F0200303600823C36195
:1007D0000023B7E7B83C00002DE9F05F89460446E6
:1007E0004FF0000ADFF874B1FB44C0F820A02046A7
:1007F000E1688847002874D0252806D0D4E9012173
:100800009047206A401C2062F1E700265F462046A0
:10081000E16888472028054607DB312D05D2781985
:1008200010F8200C08B10643F1E7B00701D526F017
:100830000406C4F81CA00027C4F818A02A2D09D06B
:10084000284603F02DF938B304EB8708303DC8F88B
:10085000185019E059F8041B204604EB87029161F7
:10086000E1688847012F054618D1E069002820DAA1
:1008700026F020061DE0D8F8180000EB800005EBFC
:1008800040003038C8F818002046E168884705461F
:1008900003F006F90028EED1012F0AD02E2D08D141
:1008A0002046E16888477F1C0546022F46F0200657
:1008B000C4DBA069002803DA404246F00106A061CB
:1008C000F00701D026F010066C2D0BD0682D09D052
:1008D0004C2D39D06A2D35D0742D35D07A2D33D0AA
:1008E00016E038E0E1682F4620468847B8420546C2
:1008F00009D16C2F26D04FF48060E1680643204672
:100900008847054604E06C2F1AD04FF480700643E8
:100910000DB3A5F14100192802D8203546F4006630
:100920004A462946204626604E46FFF767FC80B1BE
:1009300001280BD0F61D26F0070000F1080956E744
:100940004020E4E78020D8E70020D6E706F104093C
:100950004DE7284652E7206A00F002B8483C000004
:1009600030BCBDE8C09F4FF0000200B5134694466E
:100970009646203922BFA0E80C50A0E80C50B1F1F7
:100980002001BFF4F7AF090728BFA0E80C5048BF0B
:100990000CC05DF804EB890028BF40F8042B08BFA9
:1009A000704748BF20F8022B11F0804F18BF00F8A5
:1009B000012B7047004870471000002030B5B0F19F
:1009C0000A0271F100034FEA900E4EEA817EB0EB0D
:1009D0000E0061EB91014FEA101E4EEA017E10EB12
:1009E0000E0041EB11114FEA102E4EEA016E10EB92
:1009F0000E0041EB11214FEA104E4EEA014E10EB72
:100A00000E0041EB1141401841F100014FEAD000C6
:100A100040EA41704FEAD1014FEA810444EA907400
:100A200010EB800544EB01046D1944EB0404521BE8
:100A3000A3414FF0000348BF0A3200D530BD401C2F
:100A400041F1000130BD2DE9F0470D46994692462F
:100A5000044600F124080168880604D5E06921F005
:100A60001001216000E00120A84201DD471B00E0E9
:100A70000027A1697A1902EB0900081AA061207801
:100A8000C00602D42046FFF7B5FC002608E0D4E9F2
:100A900001211AF806009047206A401C761C20624B
:100AA0004E45F4DB2078C0060AD52046FFF7A2FCAD
:100AB00006E0D4E9012130209047206A401C2062E2
:100AC000381EA7F10107F4DC07E0D4E9012118F88A
:100AD00005009047206A401C2062281EA5F10105F0
:100AE000F3DC2046FFF79CFC2078000602D50220AC
:100AF000BDE8F0870120FBE72DE9FF4F0C461E46BD
:100B00004FF0FF378BB0D2E90001DDF860800A902A
:100B10008A46C1F30A5505B93D46002108464FF003
:100B20000000BAF1000F00F4400005DA00EB80008D
:100B30004FF4400101EA50004FEA9059B9F1010F1A
:100B400000DDB9460A9850EA4A000ED044F610502B
:100B5000A5F2FF3545432F14B8F1000F1ED07542A2
:100B6000291E1EDDC9F100021CE0B8F1010F4FF093
:100B7000000001D0302103E0F24305E02154401C85
:100B8000B042FBDB30460022002121540B99C1F812
:100B90000880C1E900200FB000F0BCB9BD1B6D1C7E
:100BA000DEE74A4600DA694206A800F0FFFB06AB22
:100BB00093E8070003AB83E8070050460A9901F069
:100BC000A2FE8DE80700A0F500501F3800900398A2
:100BD000002D0ADD42F21F014A460844002303A902
:100BE0000390684602F00CF909E0A0F500504A466F
:100BF0001F38002303A90390684602F016F98DE818
:100C000007000004000C03D04FF0FF30410800E063
:100C10001046B8F1000F03D00022009215461EE0E6
:100C2000751E05D4FFF7CAFE303262556D1EF9D528
:100C3000B3460122084302D000227F1C04E0207842
:100C4000302801D100227F1E002A099784D01DE0A0
:100C5000112D07DAFFF7B2FE303262556D1C50EAF3
:100C60000102F5D1084302D00098C8B10EE000217E
:100C7000681E05E0235C625C63542254401E491CDC
:100C80008142F7DBAB46A81B401E0990002004F808
:100C90000B000B98099AC0F80880C0E9002B7AE78E
:100CA00011264FF0000857E72DE9F04F884604461B
:100CB000D21D22F0070191B0D1E90001CDE90A016E
:100CC00002F0EAF902460B98C00F01D02D2007E090
:100CD0002068810701D52B2002E0202101EAC00015
:100CE000032A099001D0072A05DB03464146204626
:100CF00000F01CFB0BE12078800601D5E06900E0E4
:100D00000620B8F1650F814606D0B8F1660F18D0FD
:100D1000B8F1670F70D131E00020B9F1110F0090E8
:100D200001DB112301E009F101030AAA01A90CA8C2
:100D3000FFF7E2FEDDE90C70002609F101058346AC
:100D400047E001204B4600904FF000470AAA01A956
:100D50000CA8FFF7D1FEDDE90DB00C995D46002629
:100D600010B909F101000D18B9EB050003D4C0F169
:100D7000FF3609F10105A5EB09002BE0B9F1010FE0
:100D800001DA4FF001090020B9F1110F0090484637
:100D900001DD112300E003460AAA01A90CA8FFF710
:100DA000ABFEDDE90C704D46002683462078000737
:100DB0000AD4AB4500DA5D4601A8012D04DD4119D6
:100DC00011F8011C302907D04F4502DA17F1040F42
:100DD00004DA012082460FE06D1EEEE7002F02DCF0
:100DE000ED1B3E4403E0781CA84200DD7D1CB81BCF
:100DF00000F1010A4FF000472078000703D4AA450C
:100E000001DB4FF0FF3A0021B7F1004F0DF143082D
:100E10008DF8431024D002202B23002F01DA7F42CB
:100E20002D230A21021EA0F1010000DC5FB197FB17
:100E3000F1FC97FBF1F201FB1C7C17460CF1300C26
:100E400008F801CDEEE7A8F101000370218809053B
:100E500001D5452100E06521A0F1010800F8011C41
:100E600009980FA9A1EB0807FF1D00B10120411946
:100E700001EBEA70A1693844081A401EA06120788D
:100E8000C00602D42046FFF7B5FA099828B1D4E984
:100E900001219047206A401C20622078C00622D59C
:100EA0002046FFF7A7FA1EE0002E04DBB34502DD63
:100EB00001A8805D00E03020D4E901219047206A3C
:100EC000401C2062761CAAF101005FEA000A0AD1E8
:100ED00000F028FAC0680168405CD4E9012190471D
:100EE000206A401C2062281EA5F10105DCDC07E019
:100EF000D4E9012118F8010B9047206A401C2062B8
:100F0000381EA7F10107F3DC2046FFF789FA03201A
:100F100011B041E630BCBDE8C08F00002DE9F04FB4
:100F200004460D46D21D22F0070089B0D0E9009793
:100F30004846394602F0B0F80246F80F01D02D239A
:100F400007E02068810701D52B2302E0202101EA78
:100F5000C0038DF820300BB1012000E00020032AEF
:100F6000824601D0072A04DB2946204600F0DEF93C
:100F70003FE12078800601D40D2500E0E569C7F344
:100F80000A560D2D49DA00214FEA175B08464FF04B
:100F90000000002F00F4400007DA00EB80004FF45F
:100FA000400100EBD07001EA60008115012901DDEC
:100FB0004FF0FF3100224FEA850CBCF1180F06D329
:100FC0001346ACF118004FF08052C24003E04FF4DA
:100FD000801323FA0CF30CF10C0CBCF1200F04D39A
:100FE000ACF1200C09FA0CF001E007FA0CF0002932
:100FF0004FF0004801DD18B90FE00ED140450CD389
:1010000019EB02095F4121B9404502D19F4329EA0A
:101010000209BBEB175F00D0761C2088000502D5C3
:101020007B48784402E07A487844193808AA30238B
:1010300002F80A30037C0AF10101002E0AF1020ACB
:1010400053546A4602DC4FF0300101E04FF03101A9
:101050004FF001088DF8001002D0A6F2FF3603E031
:1010600059EA470100D06B4E002D02DC21780907B8
:1010700004D54FF002082E218DF80110C44600213E
:101080000BE0C7F303433F01C35C491C6D1E02F82C
:101090000830052908F1010801DA002DF1DC0021F2
:1010A0000CE000EB1973491C1B786D1E082902F82F
:1010B00008304FEA091908F1010801DA002DF0DCC7
:1010C00021688B0602D516E0A8F10108E04505DD90
:1010D00002EB080313F8013C302BF5D0B8F1000FF8
:1010E00009DD02EB080313F8013C2E2B03D109079D
:1010F00001D4A8F10108002D05DD3E2102F80810F9
:101100006D1E08F10108407C002E02F8080008F16D
:10111000010804DA2D20764202F8080002E02B20B4
:1011200002F808000A214FF47A70864208F101089B
:101130000BDB96FBF0F3303302F8083096FBF0F34C
:1011400008F1010800FB136601E0642E0CDB64204B
:1011500096FBF0F3303302F8083096FBF0F308F119
:10116000010800FB136601E00A2E06DB96FBF1F096
:10117000303002F8080008F1010896FBF1F001FB9D
:101180001060303002F80800A16908F1010808EB8E
:10119000050202EB0A00081AA0612078C00602D4FA
:1011A0002046FFF727F9216A08AE01EB0A0020620A
:1011B00004E0D4E9012116F8010B9047BAF1010AC5
:1011C000F7D22078C00602D52046FFF713F96E4605
:1011D00009E016F8010B3E280FD0D4E90121904711
:1011E000206A401C2062B8F10108F2D22046FFF7C5
:1011F00017F909B0032000F00FB8206A28442062D4
:1012000003E0D4E90121302090476D1EEBD3F8E7CD
:101210005D35000002FCFFFF30BCBDE8C08F10B59B
:10122000436913B1AFF3008001E0FFF71CF901201F
:1012300010BD127800F124010A7000224A700122C8
:10124000EDE711684FF0FF32E9E710B5436913B1DC
:10125000AFF3008001E0FFF79DF9012010BD128877
:1012600000F1240182840022C2840122EDE711688A
:101270004FF0FF32E9E72DE9F04116460C460546EE
:1012800000F048F8036893F80101012807D0FF2C0B
:1012900012D8185D80B101202C70BDE8F081D3F820
:1012A00007013246214603F20713C7182846BC46F9
:1012B000BDE8F041002360474FF0FF30EDE700004C
:1012C00000487047100000207546FFF7F9FFAE4652
:1012D00005006946534620F00700854618B020B542
:1012E000FFF722F8BDE820404FF000064FF000075E
:1012F0004FF000084FF0000BAC46ACE8C009ACE87A
:10130000C009ACE8C009ACE8C00921F007018D466E
:101310007047000010B500F005F8001D10BD00BFBB
:10132000D527000000487047300000202DE9F0412B
:101330001F46044603260168072A01F4006004DB07
:1013400008B116A505E016A503E008B115A500E053
:1013500015A521F010002060A069C01EA0610FB18A
:10136000401EA0612046FFF745F84FB1D4E90121A6
:1013700038469047206A401C2062C01C206206E06C
:10138000206AFAE7D4E9012115F8010B9047761E8F
:10139000F8D22046FFF744F8BDE8F0814E414E00F8
:1013A0006E616E00494E4600696E66002DE9F04799
:1013B000814616468AB0354878440DC88DE80D0040
:1013C00032487844801C03AC0DC884E80D0041F617
:1013D0009B300844372190FBF1F290FBF1F5A5F129
:1013E000800501FB12041B3C02D56442012000E091
:1013F0000020DFF898A080460027FA44AAF1BE0A30
:101400000EE0E0070AD03246684607EB47010123A9
:101410000AEB810101F009FD8DE8070064107F1CD3
:10142000002CEED1194F7F44AE3F19E0E80715D0EC
:1014300007EB04100DF1180A90E80E008AE80E0080
:10144000C068F04201D1981908903246012306A9DC
:1014500003A801F0EAFC03AB83E807006D10641CED
:10146000002DE3D14FF0010332466946B8F1000F79
:1014700003A802D001F0C4FC01E001F0D6FCC9E9E8
:101480000001C9F808200AB0BDE8F0875832000012
:1014900010B50446AFF300802046BDE81040FEF7CB
:1014A00012BF00000000000030B44FF0013C50F8C3
:1014B000042B51F8043BCCFA52F4D51A20D1FCB9D4
:1014C00050F8042B51F8043BCCFA52F4D51A17D13A
:1014D000B4B950F8042B51F8043BCCFA52F4D51AA5
:1014E0000ED16CB950F8042B51F8043BCCFA52F4ED
:1014F000D51A05D1002CDAD030BC4FF0000070476F
:1015000029BAB1FA81F111F01801D1F1200084401B
:10151000F2D1CA40CB4012F0FF0213F0FF0330BCFF
:10152000D01A704701491820ABBEFEE72600020022
:1015300070470000704700007047000041F24C0106
:10154000C4F20201086840F00200086040F2004165
:10155000C4F60001086820F470200860086840F4B0
:101560002020086040F22441C4F60001086820F001
:10157000FF000860086840F04400086040F208413D
:10158000C4F60001086840F47020086040F20C4185
:10159000C4F60001086820F470200860086840F470
:1015A000A020086040F20441C4F60001086840F43D
:1015B000C07008607047000082B001905220009017
:1015C000019845F20041C4F20001884221D1FFE7B1
:1015D00041F25801C4F20201086840F400100860AA
:1015E00041F28801C4F20201086820F4405008600A
:1015F000086840F48050086041F23801C4F20201EA
:10160000086840F400100860086820F400100860C2
:1016100053E0019845F60001C4F20001884221D14F
:10162000FFE741F25801C4F20201086840F480006B
:10163000086041F28801C4F20201086820F44040C9
:101640000860086840F48040086041F23801C4F244
:101650000201086840F480000860086820F48000F7
:10166000086029E0019845F60041C4F20001884273
:1016700021D1FFE741F25801C4F20201086840F4A9
:101680000000086041F28801C4F20201086820F4F9
:1016900040300860086840F48030086041F238014A
:1016A000C4F20201086840F400000860086820F4F1
:1016B00000000860FFE7FFE7FFE70199086820F0F6
:1016C000010008600199086820F4805008600199C1
:1016D000086820F4706008600199086840F0800094
:1016E00008600199002008610199086920F07040A4
:1016F00008610199086940F0E040086101990869B2
:1017000040F08C0008610199086940F40C400861C0
:101710000199086940F4801008610199086940F452
:10172000003008610199886820F4004088600098C2
:1017300040F40040019988600199086820F4003065
:1017400008600199886820F4004088600199486821
:1017500020F4006048600199486840F000704860DB
:101760000199486840F4004048600199086840F0D9
:101770000100086002B0704780B588B006908DF80F
:10178000171004928DF80F309DF80F00012803DB2D
:10179000FFE7049820B9FFE7FF208DF81F0054E011
:1017A000069800F09FF806989DF817109DF80F20F6
:1017B000002300F04FF8B0F1FF3F04DCFFE7FF200B
:1017C0008DF81F0041E000200290FFE702989DF88D
:1017D0000F10884211DAFFE7FFE706988069C0071B
:1017E00008B9FFE7F9E704980299405C0699886216
:1017F000FFE7029801300290E8E7FFE70698816969
:10180000002049060029019009D4FFE70698806965
:1018100000F01001012080EA11100190FFE701980B
:10182000C00708B1FFE7E9E706988069C00600280D
:1018300004D5FFE7FF208DF81F0006E0069800F0B2
:101840003FF800208DF81F00FFE79DF91F0008B04A
:1018500080BD000084B0039002918DF807208DF8C0
:10186000063000200090039840680090009849F6E8
:101870000001CFF60041084000909DF806000128C5
:1018800005D1FFE7009840F48060009004E00098E4
:1018900020F480600090FFE702986FF39F209DF88E
:1018A000071040EA0141009808430090009840F476
:1018B00000500090009803994860002004B07047E1
:1018C00081B000900099486840F480404860FFE78C
:1018D000009880698006002801D4FFE7F8E701B08E
:1018E0007047000081B00090FFE700988069000415
:1018F000002801D5FFE7F8E701B0704741F2580032
:10190000C4F202000068C00000280AD4FFE741F2D8
:101910005800C4F20200016841F080510160006883
:10192000FFE747F20000C4F200000068C00500288D
:1019300014D4FFE747F20001C4F20001086840F444
:1019400080700860FFE747F20000C4F20000006802
:10195000C005002801D4FFE7F5E7FFE741F2900159
:10196000C4F20201086820F005000860086840F42D
:1019700080300860086820F480300860FFE741F29A
:101980009000C4F2020000688007002809D4FFE735
:1019900041F29001C4F20201086840F001000860C1
:1019A000EDE741F29001C4F20201086820F44070B2
:1019B0000860086840F48070086041F25802C4F280
:1019C0000202106820F080501060086840F4004067
:1019D0000860704780B5FFF791FF42F62401C4F21A
:1019E0000001CA2008605320086042F60C01C4F2CE
:1019F0000001086840F080000860FFE742F60C0034
:101A0000C4F2000000684006002801D4FFE7F5E7B3
:101A100042F60801C4F20001086820F040000860A6
:101A200042F61001C4F20001086840F4FE000860AC
:101A3000086840F0FF00086042F60001C4F20001AF
:101A400043F20020C0F21100086042F60401C4F223
:101A5000000140F21940C0F22300086042F60C0178
:101A6000C4F20001086820F08000086042F62401FA
:101A7000C4F20001FF20086080BD000083B042F284
:101A80000001C4F20201086820F00700086008683D
:101A900040F00200086041F20001C4F2020108684F
:101AA00040F480700860FFE741F20000C4F20200D9
:101AB00000684005002801D4FFE7F5E710200290F8
:101AC00041F20401C4F20201086820F0F8500860F5
:101AD000029A086840EA0260086041F20001C4F21C
:101AE0000201086820F080700860FFE741F2000002
:101AF000C4F2020000688001002801D5FFE7F5E785
:101B000041F20C01C4F202010191086820F00300C7
:101B10000860086840F0020008600868142262F358
:101B20000E2008600868012262F306100860086849
:101B300020F0C0600860086840F08070086041F2E2
:101B40000001C4F20201086840F080700860FFE7FD
:101B500041F20000C4F2020000688001002801D4B4
:101B6000FFE7F5E741F20801C4F20201086820F03E
:101B700003000860086840F003000860FFE741F2D6
:101B80000800C4F20200006800F00C000C2801D02C
:101B9000FFE7F4E741F20801C4F20201086820F00F
:101BA000F0000860086820F4E0600860086820F42D
:101BB0006050086041F20001C4F20201086820F0A0
:101BC00080600860FFE741F20000C4F20200006894
:101BD0004001002801D5FFE7F5E741F21001C4F20A
:101BE00002010091086820F4FE400860086840F493
:101BF000C0500860086840F400300860086840F48D
:101C00008030086041F20001C4F20201086840F02F
:101C100080600860FFE741F20000C4F20200006843
:101C20004001002801D4FFE7F5E741F28801C4F242
:101C30000201086820F44000086041F26001C4F22B
:101C40000201086840F40010086003B0704700000B
:101C500080B584B0012000F0B9FB40202022002391
:101C60000393114600F0CCFA5A201E21019100F096
:101C7000DBFC039B40F20800C2F200000290016806
:101C8000426845F67B10C0F6000000F011FE3E20D1
:101C9000362100F0C9FC0298039B0168426845F6B2
:101CA0007D10C0F6000000F003FE0199222000F034
:101CB000BBFC0298039B0168426845F67F10C0F6A2
:101CC000000000F0F5FD3C20042100F0ADFC02987E
:101CD000039B0168426845F67810C0F6000000F0EA
:101CE000E7FD04B080BD000080B5BAB02AA8089016
:101CF00040210191FEF74EFB089842F60001C4F224
:101D0000000102910A68C2F30312096801F00F038F
:101D100045F68111C0F600010391FEF721FB019900
:101D20001AA80590FEF736FB029B039905981A68DE
:101D3000C2F303321B68C3F30323FEF711FB0199BF
:101D40000AA80490FEF726FB029B039904981A68E0
:101D5000120D1B68C3F30343FEF702FB022006903B
:101D60000021099100F060FC0498099B40F20002F8
:101D7000C2F2000207921168526800F099FD0698BD
:101D8000122100F051FC0598079A099B11685268CE
:101D900000F08EFD0698242100F046FC079A089872
:101DA000099B1168526800F083FD3AB080BD0000C5
:101DB00080B58AB042F60001C4F200010868C0F3A1
:101DC000034240F27C40C2F2000002600968C1F3A5
:101DD000035240F28041C2F200010A60096801EB3F
:101DE0008101006800EB410140F27840C2F200003E
:101DF00001900160006802F0D0F841EC100B51EC4A
:101E0000100B9FED390B53EC102B0393029202F051
:101E1000EFF841EC100B51EC100B9FED350B53EC30
:101E2000102B0593049201F087FE41EC100B01F09A
:101E30004BF951EC100B9FED300B53EC102B07932B
:101E4000069202F0D5F841EC100B51EC100B9FED0F
:101E50002C0B53EC102B01F06FFE41EC100B51ECEE
:101E6000100B02F06BF8014601980991006802F02E
:101E700094F8029A039B41EC100B51EC100B02F00A
:101E8000B7F8049A059B41EC100B51EC100B01F0D4
:101E900053FE41EC100B01F07BF9069A079B51ECC5
:101EA000100B02F0A5F841EC100B51EC100B9FED5C
:101EB000160B53EC102B01F03FFE41EC100B51ECD4
:101EC000100B02F03BF808909DF824209DF820307C
:101ED0006946002008604020202100F00DFB0AB078
:101EE00080BD00BF00BF00BF65732D3852C1E03F09
:101EF000182D4454FB21F9BF0000000000003040C1
:101F000000000000000050400000000000004040C1
:101F100080B582B000200190FFF7B0FDFFF70EFB07
:101F200045F20040C4F20000FFF746FB00F06CFAF7
:101F3000FFF750FDFFE7FFF78BFE00F0B9F800F068
:101F400007F8FFF735FFFFF7CFFE00F0A1FBF2E740
:101F500080B58AB042F60001C4F200010868C0F3FF
:101F6000032240F28840C2F2000002600968C1F317
:101F7000033240F28C41C2F200010A60096801EBB1
:101F80008101006800EB410140F28440C2F2000090
:101F900001900160006802F000F841EC100B51EC78
:101FA000100B9FED390B53EC102B0393029202F0B0
:101FB0001FF841EC100B51EC100B9FED350B53EC5F
:101FC000102B0593049201F0B7FD41EC100B01F0CA
:101FD0007BF851EC100B9FED300B53EC102B07935B
:101FE000069202F005F841EC100B51EC100B9FED3E
:101FF0002C0B53EC102B01F09FFD41EC100B51EC1E
:10200000100B01F09BFF014601980991006801F057
:10201000C4FF029A039B41EC100B51EC100B01F032
:10202000E7FF049A059B41EC100B51EC100B01F0FB
:1020300083FD41EC100B01F0ABF8069A079B51ECC5
:10204000100B01F0D5FF41EC100B51EC100B9FED84
:10205000160B53EC102B01F06FFD41EC100B51EC03
:10206000100B01F06BFF08909DF824209DF82030A4
:102070006946002008604020202100F03DFA0AB0A7
:1020800080BD00BF00BF00BFD5EB7BF3E9CEBA3FF8
:10209000182D4454FB21F9BF000000000000384017
:1020A0000000000000005040000000000000404020
:1020B00080B58AB042F60001C4F20001086800F061
:1020C0000F0240F29440C2F2000002600968C1F3BE
:1020D000031240F29841C2F200010A60096801EB64
:1020E0008101006800EB410140F29040C2F2000023
:1020F00001900160006801F050FF41EC100B51ECC1
:10210000100B9FED370B53EC102B0393029201F051
:102110006FFF41EC100B51EC100B9FED330B53ECA8
:10212000102B0593049201F007FD41EC100B00F019
:10213000CBFF51EC100B9FED2E0B53EC102B0793A4
:10214000069201F055FF41EC100B51EC100B9FED86
:102150002A0B53EC102B01F0EFFC41EC100B51EC6F
:10216000100B01F0EBFE014601980991006801F0A7
:1021700014FF029A039B41EC100B51EC100B01F081
:1021800037FF049A059B41EC100B51EC100B01F04A
:10219000D3FC41EC100B00F0FBFF069A079B51ECBF
:1021A000100B01F025FF069A079B41EC100B51EC38
:1021B000100B01F0C1FC41EC100B51EC100B01F0C5
:1021C000BDFE08909DF824209DF82030694600202F
:1021D00008604020202100F08FF90AB080BD00BFC8
:1021E000D5EB7BF3E9CEBA3F182D4454FB21F9BF60
:1021F00000000000000040400000000000005040CF
:1022000080B586B08DF817008DF816108DF8152062
:102210008DF814309DF81500404204900020039082
:102220009DF815100220A0EB410002909DF81700C8
:102230007F2805DCFFE79DF81600402801DBFFE75B
:102240006EE0FFE79DF817000499401A9DF81610FC
:10225000039A11449DF81420C0B2C9B200F062F88C
:102260009DF81700049908449DF81610039A11442C
:102270009DF81420C0B2C9B200F054F89DF81700C0
:10228000049908449DF81610039A891A9DF81420A1
:10229000C0B2C9B200F046F89DF817000499401A80
:1022A0009DF81610039A891A9DF81420C0B2C9B27D
:1022B00000F038F80298019001980399884218DCE0
:1022C000FFE70398013003900298039900EB410067
:1022D0000130029004990398C84208D1FFE70198A1
:1022E0000499884203DCFFE70020019000E0FFE74B
:1022F00000E0FFE70198049988420ADDFFE70498AF
:10230000013004900298049900EB410001300290E2
:1023100000E0FFE7FFE70498012893DBFFE7FFE712
:1023200006B080BD81B08DF803008DF802108DF8E5
:1023300001209DF803007F2805DCFFE79DF80200DF
:10234000402801DBFFE73FE040F27000C2F20000EE
:10235000007940B1FFE79DF80100B0FA80F0400934
:102360008DF80100FFE79DF80100012816D1FFE775
:102370009DF8022002F00701012000FA01F39DF808
:1023800003006FF0700101EA0211421840F2780177
:10239000C2F20001885C1843885415E09DF80220C1
:1023A00002F00701012000FA01F39DF803006FF02D
:1023B000700101EA0211421840F27801C2F20001F4
:1023C000885C98438854FFE701B0704782B08DF86D
:1023D000070000200090FFE700990020B0EB912F4C
:1023E00010D1FFE79DF80700002818BFFF20009AD2
:1023F00040F27801C2F200018854FFE700980130F2
:102400000090E9E702B0704780B584B000F0FAF8B8
:1024100000200390FFE7039848F29F61C0F201019A
:10242000884205D8FFE7FFE7039801300390F2E701
:102430000020019000F00AF92020009000F0EAF955
:10244000019800F0E7F9B02000F0E4F9C82000F0AE
:10245000E1F9019800F0DEF9102000F0DBF94020EE
:1024600000F0D8F9FF2000F0CFF8A12000F0D2F959
:10247000A62000F0CFF9A82000F0CCF93F2000F012
:10248000C9F9A42000F0C6F9D32000F0C3F90198DF
:1024900000F0C0F9D52000F0BDF9F02000F0BAF945
:1024A000D92000F0B7F9222000F0B4F9DA2000F0CA
:1024B000B1F9122000F0AEF9DB2000F0ABF9009882
:1024C00000F0A8F98D2000F0A5F9142000F0A2F981
:1024D0000120029000F0BAF80198FFF777FF00F0B2
:1024E000D7F8019A029840F27001C2F200010A8006
:1024F0004A80487104B080BD80B58AB084460C988B
:102500008DF827C08DF826108DF825208DF8243001
:102510008DF823009DF825009DF82710401AFDF73F
:1025200035FF07909DF824009DF82610401AFDF70E
:102530002DFF06909DF827109DF825204FF0FF30C5
:1025400091420146B8BF012105919DF826109DF8E2
:1025500024209142B8BF0120049007980699401AA0
:1025600003909DF825009DF824109DF82320FFF787
:10257000D9FEFFE79DF827109DF825200120914204
:10258000019009D1FFE79DF826009DF82410401A1C
:1025900018BF01200190FFE70198C00778B3FFE75B
:1025A0009DF827009DF826109DF82320FFF7BAFE1E
:1025B00003984000029002980699494288420BDD38
:1025C000FFE706990398401A039005999DF82700A4
:1025D00008448DF8270000E0FFE702980799884239
:1025E0000BDAFFE7079903980844039004999DF8D4
:1025F000260008448DF8260000E0FFE7BAE70AB09D
:1026000080BD00007047000080B582B08DF80700E3
:1026100081208DF8060000F0FDF89DF8070000F01D
:10262000F9F802B080BD000081B08DF803008DF88C
:1026300002109DF8030040F27001C2F20001088010
:102640009DF80200488001B07047000080B582B05C
:102650008DF807009DF8070050B1FFE7AF208DF817
:10266000060040F27001C2F200010120887109E009
:10267000AE208DF8060040F27001C2F20001002089
:102680008871FFE79DF8060000F0C4F802B080BD35
:1026900080B582B000208DF80700FFE79DF80700A5
:1026A00007281EDCFFE79DF80700B030C0B200F03D
:1026B000B1F8002000F0AEF8102000F0ABF89DF863
:1026C000071040F27800C2F2000000EBC110802138
:1026D00000F0B8F8FFE79DF8070001308DF807001B
:1026E000DCE702B080BD000080B588B0069205919D
:1026F0008DF813008DF812309DF81300202805DBAB
:10270000FFE79DF813007F2804DBFFE700208DF82A
:102710001F007BE040F27000C2F2000000889DF8CC
:102720001410084480280BDCFFE740F27000C2F26E
:10273000000040889DF815100844412804DBFFE79D
:1027400000208DF81F0061E000200390FFE7039850
:102750009DF8151088424BD2FFE706989DF813109C
:1027600020399DF81520039B11FB023130F8110030
:10277000029000200190FFE701989DF81410884214
:1027800031D2FFE70298019988400004002811D552
:10279000FFE740F27001C2F200010888019A10447C
:1027A0004988039A11449DF81220C0B2C9B2FFF7BC
:1027B000B9FD13E040F27001C2F200010888019AED
:1027C00010444988039A11449DF81220B2FA82F20B
:1027D0005209C0B2C9B2FFF7A5FDFFE7FFE70198B4
:1027E00001300190C8E7FFE7039801300390AEE79E
:1027F0009DF8142040F27001C2F2000108881044D4
:1028000008809DF813008DF81F00FFE79DF81F005A
:1028100008B080BD80B582B08DF8070000208DF82B
:1028200005009DF807008DF8060045F20040C4F24F
:10283000000078210DF105020223FEF79DFF02B092
:1028400080BD000080B5ADF5826DCDF80C04CDF8EB
:10285000081440208DF803000020CDF80404FFE7A1
:10286000DDF80404DDF80814884210D2FFE7DDF833
:102870000C04DDF80414405C0DF1030211444870AF
:10288000FFE7DDF804040130CDF80404E8E7DDF8E3
:1028900008040130C3B245F20040C4F200007821C0
:1028A0000DF10302FEF768FF0DF5826D80BD00009B
:1028B00080B586B00492039102908DF80730FFE74F
:1028C00002980078B0B1FFE7029800789DF80730D1
:1028D0000399049AFFF708FF02990978884205D006
:1028E000FFE7029800788DF8170008E002980130A1
:1028F0000290E5E7029800788DF81700FFE79DF851
:10290000170006B080BD5FEA400C08BF91F0000FD1
:102910004FEA8C234FEAC12243EA51514FEA1C503F
:1029200018BF00F5F0404FEA300018BF41F00041F9
:102930005FEA6C5C00F02980BCF1FF3F08BF40F00B
:1029400080407047130C06BF12044FF0100C4FF07C
:10295000000C130E04BF12020CF1080C130F04BF7D
:1029600012010CF1040C930F04BF92000CF1020C45
:10297000D30F04BF52000CF1010C11464FF00002BE
:10298000A0F11F00A0EB0C00704711F0004F08BF32
:10299000704731F000413FF4D5AF0B0C06BF09047E
:1029A0004FF0100C4FF0000C0B0E04BF09020CF19D
:1029B000080C0B0F04BF09010CF1040C8B0F04BFB2
:1029C00089000CF1020CCB0F04BF49000CF1010C83
:1029D000CCF1200322FA03F341EA030102FA0CF2DC
:1029E000A0EB0C0000F101007047000023F07F47CE
:1029F00020F07F4C80EA030000F00040ACEB0703BE
:102A000003F57C5303F1FF032DE9804909B44FEA34
:102A1000144324EA03484FEA154B25EA0B4E0FF204
:102A2000042606EB13273E7803FB0667C7F500076D
:102A300007FB06F64FEAD64606F102064FEA543780
:102A400007FB066CCCF1005C4FEA1C472CEA074CF4
:102A50000CFB06F507FB06F404EB15464FEA961649
:102A600049085FEA320234BF00204FF000404FEACD
:102A7000D13706FB07FC4FEA1C4C0CFB0BF7D21BB3
:102A800003FB0CF761EB07010CFB0EF7B0EB074003
:102A900072EB17420CFB08F734BFA2EB0742B2EB14
:102AA000074261EB17414FEA0C444FEA910706FBDE
:102AB00007FC4FEA1C4C0CFB0BF7B0EBC74072EB6A
:102AC000573203FB0CF734BFA2EBC742B2EBC7424D
:102AD00061EB57310CFB0EF7B0EBC70072EB57728E
:102AE0000CFB08F734BFA2EBC702B2EBC70261EBE5
:102AF00057714FEA816141EA92114FEA826242EADC
:102B000090124FEA806004EBCC04039F4FEAD13768
:102B100006FB07FC4FEA1C4C0CFB0BF7D21B03FB1C
:102B20000CF761EB07010CFB0EF7B0EB074072EB03
:102B300017420CFB08F734BFA2EB0742B2EB074287
:102B400061EB17414FEA8C5504EB9C244FEA910747
:102B500006FB07FC4FEA1C4C0CFB0BF7B0EBC74025
:102B600072EB573203FB0CF734BFA2EBC742B2EB58
:102B7000C74261EB57310CFB0EF7B0EBC70072EBAD
:102B800057720CFB08F734BFA2EBC702B2EBC702C7
:102B900061EB57714FEA816141EA92114FEA82621B
:102BA00042EA90124FEA806015EB4C2544F1000494
:102BB0004FEAD13706FB07FC4FEA1C4C0CFB0BF726
:102BC000D21B03FB0CF761EB07010CFB0EF7B0EB1C
:102BD000074072EB17420CFB08F734BFA2EB074229
:102BE000B2EB074261EB17414FEA813141EA924172
:102BF0004FEA823242EA90424FEA80304FEA0C7646
:102C000015EB1C1544F1000448EA03434EEA0B4857
:102C10004FF0000EB2EB080C71EB030724BF6246C5
:102C200039464EEB0E0E4FF0000B00185241494151
:102C30004BEB0B0BB2EB080C71EB03077BF1000BBA
:102C400024BF624639464EEB0E0E4FF0000B0018C3
:102C5000524149414BEB0B0BB2EB080C71EB0307F4
:102C60007BF1000B24BF624639464EEB0E0E51EA53
:102C7000020718BF46F0010616EB0E7655F100026A
:102C800054F1000103D5BDE88901BDE80088BDE825
:102C90008901BDE80048B619524141EB0101A3F199
:102CA0000103704780807F7E7D7C7B7A79787776A0
:102CB00076757473727171706F6E6E6D6C6C6B6A19
:102CC0006A696868676666656464636362616160B7
:102CD000605F5F5E5E5D5D5C5C5B5B5A5A59595834
:102CE000585757565655555554545353525252519E
:102CF000515050504F4F4F4E4E4D4D4D4C4C4C4BF4
:102D00004B4B4A4A4A49494948484847474747463A
:102D10004646454545444444444343434342424276
:102D2000424141419C46002B30D477002BD04FEAE2
:102D300037071CB503B44FF010004FF01001BAF183
:102D4000000F06D0BCF1000FDCBF40F0080040F0DF
:102D500008014FF000000FBCBDE810400BF1010B63
:102D6000BBF1010F08BF5FEA170722BF12F1010292
:102D700011F101014FF0004143F1000300F0004068
:102D800043EA00007047F9D35708D0E746EA064601
:102D90004FEA164613F1400F1FDD13F1200FDFBF7E
:102DA00016430A46002120335B42BED0C3F1200700
:102DB00046EA06464FEA164602FA07F746EA0706CB
:102DC00022FA03F2C3F1200701FA07F742EA0702E9
:102DD00021FA03F14FF00003A7E746EA020646EAAC
:102DE00006464FEA164646EA0106BCBF46EA0646D4
:102DF000360C4FF000034FF000024FF0000194E753
:102E00002DE9804C70B49A46934691E8380007C883
:102E100031EA400C48BF34EA430C03D5FFF7E6FD26
:102E2000FFF780FFF0BCBDE8008C2DE9804C70B44A
:102E30009A46934691E8380007C810F0804F08BFC3
:102E400013F0804F03D100F005F8FFF76BFFF0BCE3
:102E5000BDE8008C20F07F4723F07F4C80EA030020
:102E600000F0004007EB0C03A3F57C53A3F1FE0335
:102E700092F0000F00F0B38095F0000F00F0778023
:102E80002DE901494FEA114021EA00484FEA144672
:102E900024EA064700FB06FC08FB06F607FB08F8D9
:102EA00018EB06484CEB164C00FB07F718EB0748ED
:102EB0004CEB17404FEA124B22EA0B4E4FEA1546F5
:102EC00025EA06470BFB06FC0EFB06F607FB0EFE8B
:102ED0001EEB064E4CEB164C0BFB07F71EEB074E9A
:102EE0004CEB174B18EB0B0840F1000018EB0E0BE6
:102EF00058EB000840F100008F1A4FF000014FF02E
:102F000000063CBFC943661B14BFB5EB040C00218F
:102F10003CBFC943F61B4FEA174427EA04454FEA72
:102F20001C472CEA074C04FB076205FB07F70CFB68
:102F300005F616EB074642EB174204FB0CFC16EBBA
:102F40000C4642EB1C421BEB060658EB02024141C9
:102F50004EEA8E0E46EA9E0601D5BDE80189B619F5
:102F6000524141EB0101A3F10103BDE801894FEAA0
:102F7000144524EA05464FEA114721EA074C05FBB0
:102F800007F406FB07F70CFB06F111EB074144EBD6
:102F9000174405FB0CFC11EB0C4144EB1C444FEABD
:102FA000124722EA074C05FB07F206FB07F70CFB6A
:102FB00006F616EB074642EB174205FB0CFC16EB38
:102FC0000C4642EB1C456A1854F1000148BF70479B
:102FD000B619524141EB0101A3F10103704795F08D
:102FE000000F37D04FEA114221EA02464FEA144758
:102FF00024EA074C02FB07F106FB07F70CFB06F47B
:1030000014EB074441EB174102FB0CFC14EB0C449E
:1030100041EB1C414FEA154725EA074C02FB07F537
:1030200006FB07F70CFB06F616EB074645EB1745C4
:1030300002FB0CFC16EB0C4645EB1C42121951F13D
:10304000000148BF7047B619524141EB0101A3F19D
:10305000010370474FEA144524EA05464FEA114739
:1030600021EA074C05FB07F106FB07F70CFB06F20C
:1030700012EB074241EB174105FB0CFC12EB0C4233
:1030800051EB1C414FF0000648BF7047921841EBCE
:103090000101A3F10103704703B4019841000098B6
:1030A00050EAC12018BF04204A0D18BF40F00100AB
:1030B00040F2FF72B2EB515F08BF40F002000128FE
:1030C00008BF052002B0704710B52F499FED2C1B9B
:1030D0002DED020B84B0059820F000408842D8BF47
:1030E0009DED040B2DDD2949884209D1049840B992
:1030F0004FF00100FDF778F900F0B2FC06B010BD0A
:1031000005DB9DED040B00F09FFC06B010BD68468A
:103110009DED040B00F0A0F810F0030004BF9DED3E
:10312000021B9DED000B0CD001280ED09DED021B63
:103130009DED000B022817D0012000F0E1FB06B046
:1031400010BD00F0A9FA06B010BD9DED021B9DED6B
:10315000000B012000F0D4FB51EC100B00F0E0FC60
:1031600006B041EC100B10BD00F096FA51EC100BBC
:1031700000F0D6FC06B041EC100B10BD00000000C2
:103180000000000000000000FB21E93F0000F07F8C
:1031900010B52F499FED2C1B2DED020B84B0059827
:1031A00020F000408842DCBF00209DED040B32DDA2
:1031B0002849884209D1049840B94FF00100FDF731
:1031C00013F900F04DFC06B010BD05DB9DED040BBE
:1031D00000F03AFC06B010BD68469DED040B00F00F
:1031E0003BF810F0030011D0012818D09DED021B10
:1031F0009DED000B02281AD000F04EFA51EC100B96
:1032000000F08EFC06B041EC100B10BD9DED021BD2
:103210009DED000B012000F073FB06B010BD9DED8D
:10322000021B9DED000B00F037FA06B010BD012027
:1032300000F066FB51EC100B00F072FC06B041ECA4
:10324000100B10BD00000000000000000000000096
:10325000FB21E93F0000F07F2DE9F14F04462DED01
:10326000020B2DED088B8AB09FEDE70B80ED020B72
:10327000139EE74826F0004585420ADC9DED120BBF
:10328000002084ED000B0AB0BDEC088B03B000F009
:10329000FFB9E0489FEDE0AB9FEDE1BBA84247DD01
:1032A000E14F9FEDE39B9FEDE48B9DED120B53EC03
:1032B0001A2B51EC100B002E1CDD00F0A3FF41EC8B
:1032C000100BBD4208D053EC1B2B51EC100B00F03F
:1032D00099FFC4E900010BE053EC192B51EC100BE2
:1032E00000F090FF53EC182B00F08CFFC4E90001B4
:1032F0000120C8E700F020FC41EC100BBD4208D0D3
:1033000053EC1B2B51EC100B00F016FCC4E9000130
:103310000BE053EC192B51EC100B00F00DFC53ECAF
:10332000182B00F009FCC4E900014FF0FF30AAE7B8
:10333000C348A84279DB9DED120B51EC100B00F055
:10334000B6FB41EC180B9FEDC00B53EC102B00F0BB
:103350004FFE9FEDBF1B53EC112B00F0EDFB00F077
:10336000EDFD074600F019FE41EC190B53EC1A2B4A
:1033700000F03EFE53EC182B00F038FF41EC180B28
:1033800053EC1B2B51EC190B00F032FEDFF8C8A2F6
:1033900041EC100B4FEA15580125FA4453EC102B61
:1033A00051EC180B00F02EFF032DC4E900013DD0B5
:1033B000C1F30A5005EB4511A8EB00001139814219
:1033C00034DA0AEB051BB0EE48AA9BED000BF0EED9
:1033D00068AA53EC102B51EC190B00F009FE41ECDC
:1033E0001B0B51EC1A0B53EC1B2B00F00BFF41ECA9
:1033F000180B51EC1A0B53EC182B00F003FF53EC95
:103400001B2B00F0FFFE9BED020B41EC1A0B53EC63
:10341000102B51EC190B00F0EBFD53EC1A2B00F0C4
:10342000F1FE41EC100B6D1CB8E70EE0002EA8BFBA
:103430003846BFF628AF94ED000B51EC100B00F0AE
:103440006FFBC4E9000178421DE7C6F3130040F4A6
:10345000801EC6F30A50A0F2F530471100F01F0598
:10346000C5F12000DDF848B00890002006900790D4
:103470000520EC467949002D07EB0002794408BF8E
:1034800051F8221009D051F8223001EB8201AB40F3
:103490004A68089922FA01F11943A1FB0E26A1FB03
:1034A0000B131A449A4234BF0123002303EB06088E
:1034B0000CEB8003D3E901A60E448E4234BF0121F8
:1034C000002192448A4411B1924502D903E0924509
:1034D00001D2012100E00021C3E901A641444CF8DA
:1034E0002010011EA0F10100C4DC029800F1005080
:1034F000850F0298DDE903678000DDF8148000F095
:103500004CFD41EC1A0B304600F05EFD9FED541B64
:1035100053EC112B00F06CFD41EC1B0B384600F016
:1035200053FD9FED511B53EC112B00F061FD41EC5D
:10353000180B404600F048FD9FED4D1B53EC112B3E
:1035400000F056FD41EC190B51EC180B53EC192B04
:1035500000F0F2FA53EC1B2B00F0EEFA53EC1A2BAE
:1035600000F0EAFACDE90801002008909DED080B73
:1035700053EC1A2B51EC100B00F044FE53EC1B2BB8
:1035800000F040FE53EC182B00F03CFE53EC192BDE
:1035900000F02CFE9FED381B53EC112B00F028FDA2
:1035A0009FED370B41EC180B53EC102B9DED080BE6
:1035B00051EC100B00F01CFD53EC182B00F0BCFA82
:1035C0009FED310B41EC180B53EC102B9DED080BCC
:1035D00051EC100B00F00CFD53EC182B00F0ACFA82
:1035E00041EC100B139810F0004F06D06D4251ECD7
:1035F000100B00F095FA41EC100B284684ED000BFF
:1036000041E6000000000000000000000000000093
:10361000FB21E93F7CD9024000004054FB21F93FE7
:103620003163621A61B4D03DFB21F93F0000000014
:103630000000601A61B4D03D7370032E8A19A33B59
:10364000FB2139410000000083C8C96D305FE43FB1
:10365000000000000000E03FDA1000002810000029
:10366000000000000000103E000000000000103CC0
:10367000000000000000103A182D4454FB21F93DD1
:103680003326A611460B113C00000054FB21F93DE6
:1036900030BCBDE8C08F000010B52DED040B2DED42
:1036A000088B82B0B0EE419AF0EE619A0B9820F050
:1036B00000449FED4BABB4F1795F11DA9DED0A0B3D
:1036C00051EC100B00F03AFC002801BFB0EE4A0AA2
:1036D000F0EE6A0A02B0BDEC088B04BF04B010BD66
:1036E0009DED0A0B53EC102B51EC100B00F080FCFD
:1036F00041EC180B3C480621B0EE480AF0EE680A8F
:10370000784400F081F853EC182B51EC100B00F0CA
:103710006FFC9DED0A0B41EC1B0B53EC192B51EC8C
:10372000100B00F065FC41EC190B53EC1B2B51EC1A
:10373000180B00F05DFC53EC192B00F063FD9FEDBE
:103740002C0B41EC190B53EC102B51EC180B00F027
:103750004FFC41EC100B2848844210DA53EC192B33
:1037600051EC100B00F04EFD53EC1A2B00F03EFD17
:1037700041EC100B02B0BDEC088B04B010BD1F482B
:10378000A042BCBF9FED1E1B8DED001B06DBA4F508
:1037900000100190002000909DED001B51EC100BDB
:1037A00053EC112B00F02EFD9DED000B41EC180B9E
:1037B00053EC102B51EC1A0B00F024FD41EC1A0BCA
:1037C00053EC192B51EC180B00F01CFD53EC1A2B89
:1037D00000F00CFD41EC100BCCE7000000000000F5
:1037E000000000000000F03F440D00000000000059
:1037F000000000000000E03F3333D33F0000E93F0A
:10380000000000000000D23F70B504462DED028B91
:103810004D1E00EBC500B0EE408AF0EE608A90EDE0
:10382000000B35F0060017D053EC182B51EC100BA1
:1038300000F0DEFB41EC100B6D1E04EBC50090EDBB
:10384000001B51EC100B53EC112B00F075F941ECFF
:10385000100B35F00600E7D1022D36D0042D1CD018
:10386000062D1CBFBDEC028B70BD53EC182B51EC28
:10387000100B00F0BDFB94ED0A1B53EC112B00F074
:103880005BF953EC182B00F0B3FB94ED081B53ECE1
:10389000112B00F051F941EC100B53EC182B51ECAB
:1038A000100B00F0A5FB94ED061B53EC112B00F060
:1038B00043F953EC182B00F09BFB94ED040B53ECF5
:1038C000102B00F039F941EC100B53EC182B51EC94
:1038D000100B00F08DFB94ED021B53EC112B00F04C
:1038E0002BF953EC182B00F083FB94ED001B53ECE9
:1038F000112B00F021F9BDEC028B41EC100B70BDD7
:1039000031B504462DED040B2DED0A8BB0EE41BA16
:10391000F0EE61BA0B989DED0A0B20F00040B0F17B
:10392000795F0DDA51EC100BFFF7B6FB042808BFE6
:1039300000F0A6F89DED0A0B00F07AB805B030BD96
:1039400053EC102B51EC100B00F052FB41EC180B18
:103950009DED0A0B53EC182B51EC100B00F048FBBB
:1039600041EC190B2C48B0EE480AF0EE680A05212C
:103970007844FFF749FF9FED2ACBB0EE40AAF0EE66
:1039800060AA9CB353EC1C2B51EC190B00F030FBDC
:1039900041EC1C0B53EC1A2B51EC190B00F028FBDB
:1039A0009FED210B41EC190B53EC102B51EC1B0B31
:1039B00000F01EFB53EC192B00F024FC53EC182BE9
:1039C00000F016FB53EC1B2B00F01CFC53EC1C2BE3
:1039D00000F018FC9DED0A1B53EC112B00F006FCC7
:1039E00000F02CB805B041EC100B30BDFFE753ECF4
:1039F0001A2B51EC180B00F0FBFA53EC1C2B00F0C7
:103A00009BF853EC192B00F0F3FA9DED0A1B53ECD5
:103A1000112B00F091F8E3E7D40B00000000000048
:103A2000495555555555C5BF000000000000E03F01
:103A3000BDEC088BBDEC02CBFFF780BFBDEC088B63
:103A4000BDEC02CBFFF7CEBF10B553EC102B51EC01
:103A5000100B00F071F841EC100B10BD00000000DD
:103A60009FED050B10B553EC102B51EC100B00F033
:103A70000BF941EC100B10BD00000000000000002D
:103A80009FED050B10B553EC102B51EC100B00F013
:103A9000AFFA41EC100B10BD000000000000001058
:103AA00030380A2801D2012070470020704782B0C8
:103AB000CDE9000121F0004001909DED000B02B026
:103AC00051EC100B7047000010B500290AD008789F
:103AD000002807D005487844FDF7E6FC002801D00F
:103AE000002010BD0248784410BD0000D21E000026
:103AF000CA1E000010B500290AD00878002807D097
:103B000005487844FDF7D0FC002801D0002010BD06
:103B10000248784410BD0000C21E0000BA1E00001A
:103B200081F00041704780F00040704721F0004173
:103B3000704720F00040704710B591EA030F48BF6E
:103B400083F0004300F16683841A71EB030C05D205
:103B5000121943EB0C03001B61EB0C014FEA1154EB
:103B6000A4EB135CDFF81CE11EEA430F18BF9EEACA
:103B7000445F00F0748021EA045123EA0E0343F409
:103B80008013DCF1200E32D322FA0CFE10EB0E0073
:103B900023FA0CFE41EB0E01CCF1200E03FA0EFECF
:103BA00010EB0E00CCF1200E51F10001B1F5801F99
:103BB00032D201EB045112FA0EF2BDE8104058BFA8
:103BC0007047401C38BF5FEA420218BF70470028A8
:103BD00014BF20F0010041F100014FEA410313F549
:103BE000001F38BF7047A1F1C04100F0F9BA012AA7
:103BF00043EB0302ACF1200CDCF11F0E32BF4FF09F
:103C0000000E23FA0CF310EB030041EB0451B4EB6C
:103C1000115FD0D0A1EB045101F58011490801EBEF
:103C200004515FEA30000ED350F1000038BF12FAA1
:103C30000EFE08D1BDE81040C9E7401C38BF5FEA5E
:103C40004202CAD1C3E7BDE810404FEA410313F571
:103C5000001F38BF7047A1F1C04100F0C1BA9EEA11
:103C6000445F08D011EA5E0FBDE8104004BF01F0C8
:103C7000004100207047BDE8104070B500F062FAC6
:103C800064FBBE3E0000E0FF2DE9C04130B4DFF828
:103C9000A4C23CEA111418BF3CEA131400F0ED80F2
:103CA0001CEA111481EA030544EAD57418BF1CEA22
:103CB000131500F0C880A4EB050404F17F7404F52B
:103CC00000344FF0004545EAC12145EAC32341EAEB
:103CD000505143EA52534FEAC0204FEAC222994260
:103CE00008BF904200F09D804FEA13650FF2441622
:103CF000765D4FEA134506FB05F7C7F1807706FBB3
:103D000007F74FEAD737A7FB03687642A7FB06CE33
:103D1000C8F5803838BFA8F1010807FB08E6A6FB04
:103D2000028C4FF0000EE6FB03CEDCF1000CCEF16E
:103D3000004E38BFAEF1010EA6FB0C584FF0000745
:103D4000E6FB0E87A1FB08C6A0FB07CE16EB0E060E
:103D50004FF0000545F10005E1FB076515F1E04E68
:103D60007EBFA4F580345FEA46066D4116F18007F8
:103D700045F100054FEA172747EA05674FEA152581
:103D80004FEA0666A6F1DE46B6F1805F20D93846D6
:103D900005EBC47124F0010C01EB0C11BCF1FE6FBA
:103DA00002D8F0BCBDE8008124425CBF01F5801E52
:103DB0009EEAC47F02D4F0BCBDE80081244200F139
:103DC0003980A1F1C041F0BCBDE8004100F008BA63
:103DD0004FEAD02040EA41504FEAD1214FEAD222A7
:103DE00042EA43524FEAD323A7FB028607FB03664E
:103DF00005FB02661EEA0E0F58BFA6EB0056B6EB97
:103E000000564FEA520E4EEAC37E18EB0E0E56EBEA
:103E1000530EBCD518EB02085E417F1C55F100051E
:103E2000B5E74FF480154FF000074FF000064FF054
:103E30000008ACE701F1C04101F000414FF0000083
:103E4000F0BCBDE800810CEA131511EA0C1F00D08C
:103E50000CE013EA0C1F00F026804FF0000081EA0E
:103E6000030101F00041F0BCBDE80081F0BCBDE8F9
:103E7000004181EA030100F0B3B9F0BCBDE80041A4
:103E800070B500F05FF900BF097EFC3E00F007B896
:103E90004FF0000081EA030101F00041704781EA20
:103EA000030100F09DB9F0BCBDE8004122494FF08C
:103EB00000007047FFFDFBF9F7F5F4F2F0EEEDEBD3
:103EC000E9E8E6E4E3E1E0DEDDDBDAD8D7D5D4D318
:103ED000D1D0CFCDCCCBCAC8C7C6C5C4C2C1C0BF64
:103EE000BEBDBCBBBAB9B8B7B6B5B4B3B2B1B0AF6A
:103EF000AEADACABAAA9A8A8A7A6A5A4A3A3A2A14E
:103F0000A09F9F9E9D9C9C9B9A9999989797969508
:103F100095949393929191908F8F8E8E8D8C8C8BA4
:103F20008B8A89898888878786858584848383822C
:103F3000828181800000FF070000F87F4FEA410383
:103F40004FEA5353A3F58063D3F11E03C8BFD3F1E7
:103F5000210C0CDD4FF0004242EAC12242EA5052ED
:103F600032FA03FC8CEAE17CACEBE1707047102B79
:103F7000C4BF0020704703F5787CBCF1FF3F04D03C
:103F80006FF0004282EA2100704770B500F0DAF865
:103F90004992248000207047F2E710F0004248BFA9
:103FA0004042B0FA80F310FA03F10AD0C3F11D03C6
:103FB00003F5806302EB03524FEA415002EBD1213B
:103FC00070474FF000007047B0FA80F310FA03F129
:103FD0000AD0C3F11D0303F580634FEA03524FEA91
:103FE000415002EBD12170474FF0000070470000B4
:103FF00070B5DFF848C11CEA111E1EBF1CEA13157C
:104000009EEA0C0F95EA0C0F00F06F8081EA030422
:104010004EEAD47EAE4421EA4C1123EA4C1341F41B
:10402000801143F48013AEF17F7EA1FB024CA0FB14
:104030000365361955EB0C05A1FB034C4CF100034D
:10404000A0FB021C16EB0C06654153F1000309426C
:1040500018BF46F0010613F4007F0BD14FEA03317D
:104060004FEA053041EA155140EA165034036FF02B
:1040700003020AE04FEAC3214FEAC52041EA555145
:1040800040EA5650F4026FF0020202EB2E4201EBBE
:10409000025585EACE710AD05FEA440C18BF24F0BD
:1040A000004450F1000041F1000120EAD47040F2D8
:1040B000FE7C624500D270BDA84214BF4FF0804420
:1040C0004FF04044002E08BF0024BEF1806FA8BF0F
:1040D000A1F1C041BDE8704080F2828001F1C04191
:1040E00001F000414FF0000070470CEA13159EEA02
:1040F0000C0F18BF95EA0C0F06D081EA030E4FF0A3
:1041000000000EF0004170BD00F01CF88900013E77
:1041100000F007B800F009B84FEA430C5FEA5C5CB6
:1041200008D081EA030100F05BB84FEA410C5FEA76
:104130005C5CF6D102494FF0000070470000FF07B9
:104140000000F87F0EF1020E2EF0030E5EF8046BF5
:10415000364205D4012A43EB030515F5001F12D89A
:10416000012841EB010C1CF5001F0CD80ED14FEAC1
:10417000D17C0CEB4C0C0CF1020C15F5001F08BFA8
:104180004CEBD37C04E04FF0080C01E04FEAD37C09
:104190000CEB4C0526FA05F606F00706B6F1040C02
:1041A00006D20EEB860CBDE870404CF0010C604767
:1041B000DFE80CF0090B02024FF00041A1F50021ED
:1041C0004FF0000070BD19461046012851EB010464
:1041D00018BFD4F5001484BF002001F0004170BD69
:1041E0000808A0F500114FEA3101704710B591EAB7
:1041F000030F81F000413FF5A7AC83F0004300F0CE
:1042000009B8000010B591EA030F48BF83F00043DE
:104210003FF59AAC841A71EB030C07D28CF0004C7A
:10422000121943EB0C03001B61EB0C014FEA115414
:10423000A4EB135CDFF8A4E11EEA430F18BF9EEA6B
:10424000445F00F0B48021EA045123EA6E03524235
:10425000C3EB6E0338BF5B1EDCF1200E25D322FAC0
:104260000CFE10EB0E0043FA0CFE41EB0E01CCF1FC
:10427000200E03FA0EFE10EB0E00CCF1200E51F1D1
:10428000000129D401EB045112FA0EF2BDE81040EE
:1042900058BF7047401C1CBFB2F1004F7047002848
:1042A0000CBF491C20F00100704712EB020E43EBDB
:1042B000030218BF4FF0010E4EEA4202ACF1200C8F
:1042C000DCF11E0E56D943FA0CFE10EB0E00CCF1B9
:1042D0001E0E51F1FF31D5D50EF1010E12FA0EFE70
:1042E000404141EB010101EB445C5FEA5C5C10D9A9
:1042F00001EB045110EBDE7038BFBEF1004FBDE89A
:10430000104018BF704700280CBF491C20F0010066
:10431000704734D24FEAD42C24F4006411F5001114
:104320001BD0B1FA81F20B3AA41AA41ED2F12003D9
:10433000914030FA03F31943904001EBCC7101EB4B
:104340000451002CBDE81040A8BF704701F1C041E6
:1043500001F000414FF000007047B0FA80F310FA0E
:1043600003F102D1BDE810407047E41A173C48053C
:10437000C90AE2E701EB0451BDE81040704749105B
:104380004FEA300001EB0451BDE8104002E04FF06D
:10439000000170474A0008BF0042F8D0B2F5001F84
:1043A00028BF704701F000414FF0000070479EEABF
:1043B000445F07D011EA5E0FBDE8104004BF002142
:1043C00000207047BDE8104070B5FFF7BBFE00BF8E
:1043D00040DFF63E104683F0004170470000E0FFEA
:1043E000F1EE100A4FF6FF71C0F2C03120EA010071
:1043F00040F04070E1EE100A7047FCF755BCFCF746
:104400008DBD00000000000000000000303132339C
:1044100034353637383941424344454640305800F8
:10442000303132333435363738396162636465662A
:104430004030780004000008000000000000000286
:1044400000010000100000004C5555555555A53F82
:104450007751C1166CC156BF9015CB19A001FA3E19
:10446000AD529C804F7E92BEC4B1B4BD9EEE213E43
:10447000D43888BEE9FAA8BD00004054FB21F93FBA
:104480003163621A61B4D03D0000601A61B4D03D5E
:104490007370032E8A19A33B0000002E8A19A33BD8
:1044A000C14920259A837B390000000000000000EC
:1044B0006E83F9A22915444ED15727FCC0DD34F58F
:1044C000999562DB4190433CAB6351FE61C5BBDE15
:1044D0003A6E24B7E0D24D42EA2E49061C92D10929
:1044E0001CEB1DFE3EA729B1F53582E88444BB2EA6
:1044F00026709CE9417E5FB439D69139F4395383F3
:104500008B5F849C3B28F9BDFF97F81F0F9805DE51
:104510008B112FEF1F6D0A5ACF7E366DB709CB274F
:10452000663F464F2DEA5F9EC7BA27757BF1E5EBE4
:10453000F739073DEA92528AB15FFB6B085D8D1F28
:104540004630035600000000A6F810111111813FFB
:10455000D561C119A0012ABF7DFEB157E31DC73E39
:10456000EB9C2B8AE6E55ABE7CD5CF5A3AD9E53D7D
:1045700030313233343536373839616263646566D9
:104580007870003031323334353637383941424370
:10459000444546585000000002400000000000A0C2
:1045A0000000000005400000000000C800000000FE
:1045B0000C4000000000409C00000000194000007A
:1045C0000020BCBE0000000034400000BFC91B8EAC
:1045D00000000004B5400000504BCFD06607E2CF8A
:1045E000010000006C4100003E8251AADFEEA734BA
:1045F00001000000D9420000DCB5A0E23A301F976C
:10460000FFFFFFFFB4450000FD25A0C8E9A3C14F8F
:10461000FFFFFFFFFF3F00000000008000000000E0
:10462000FF3F0000000000800000000000000000CC
:10463000000000000000000000000000000000007A
:10464000000000000000000000000000000000006A
:104650000000000C000C000C000C000C000C000C06
:10466000000C000C000C000C0000000C000C000002
:10467000000000000000001B001B001B001B001BB3
:10468000000000000000000000000000000000002A
:10469000000000000000000000008019801980194F
:1046A0008019C07FC07F80190033C07FC07F003376
:1046B0000033003300330000000000000000001E43
:1046C000003F807580650074003C001E0007800577
:1046D000806580658075003F001E000400040000B6
:1046E0000000007000D840D8C0D880D90073000600
:1046F000000C801BC036C066C046C00680030000A8
:10470000000000000000001E003F003300330033B3
:10471000001E000CC03CC066806380618063C03EA8
:10472000801C0000000000000000000C000C000CC9
:10473000000C000C00000000000000000000000061
:1047400000000000000000000000000080000001E8
:104750000003000600060004000C000C000C000C16
:10476000000C000C0004000600060003000180009D
:10477000002000100018000C000C000400060006C9
:1047800000060006000600060004000C000C0018DD
:10479000001000200000000C002D003F001E003320
:1047A0000000000000000000000000000000000009
:1047B0000000000000000000000000000000000CED
:1047C000000C000C000CC0FFC0FF000C000C000C23
:1047D000000C0000000000000000000000000000CD
:1047E00000000000000000000000000000000000C9
:1047F000000000000000000C000C00040004000891
:1048000000000000000000000000000000000000A8
:104810000000001E001E000000000000000000005C
:104820000000000000000000000000000000000088
:104830000000000000000000000000000000000C6C
:10484000000C000000000000000000030003000353
:104850000006000600060006000C000C000C000C10
:104860000018001800180000000000000000001EE2
:10487000003F0033806180618061806D806D806168
:10488000806180610033003F001E000000000000D6
:1048900000000006000E001E00360026000600067E
:1048A00000060006000600060006000600060000DE
:1048B000000000000000001E003F807380618061E6
:1048C000800100030006000C001800300060807FAB
:1048D000807F0000000000000000001C003E00631C
:1048E00000630003000E000E000380018001806160
:1048F0008073003F001E0000000000000000000662
:10490000000E000E001E001E001600360036006667
:10491000807F807F00060006000600000000000087
:104920000000007F007F006000600060006E007F7C
:1049300080638001800180618073003F001E000061
:10494000000000000000001E003F80338061006016
:10495000006E007F80738061806180618033003FE2
:10496000001E0000000000000000807F807F8001AA
:104970000003000300060006000C000C000C0008F9
:104980000018001800180000000000000000001EC1
:10499000003F8063806180610021001E003F8061D4
:1049A000806180618061003F001E00000000000007
:1049B0000000001E003F0073806180618061807391
:1049C000803F801D800180610073003F001E000059
:1049D0000000000000000000000000000000000CCB
:1049E000000C000000000000000000000000000CAF
:1049F000000C0000000000000000000000000000AB
:104A000000000000000C000C00000000000000008E
:104A10000000000C000C000400040008000000006E
:104A20000000000080008003000E003800600038A5
:104A3000000E800380000000000000000000000065
:104A400000000000000000000000807F807F000068
:104A50000000807F807F0000000000000000000058
:104A60000000000000000000000000000040007096
:104A7000001C000780010007001C007000400000BF
:104A800000000000000000000000001F803FC07117
:104A9000C060C000C00180030007000E000C000CC5
:104AA0000000000C000C0000000000000000001ED0
:104AB000003F803180718063806F806D806D806F7A
:104AC000806700600032003E001C00000000000013
:104AD0000000000E000E001B001B001B001B80319D
:104AE0008031803F803F8031C060C060C060000086
:104AF000000000000000007C007E00630063006393
:104B00000063007E007E0063806180618063007FBF
:104B1000007E0000000000000000001E003F803109
:104B20008061006000600060006000600060806183
:104B30008031003F001E0000000000000000007CEB
:104B4000007F00638063806180618061806180613B
:104B5000806100630063007E007C000000000000B4
:104B60000000807F807F0060006000600060007F48
:104B7000007F0060006000600060807F807F000038
:104B8000000000000000807F807F00600060006007
:104B90000060007F007F00600060006000600060D7
:104BA00000600000000000000000001E003F803197
:104BB000806100600060006080638063806180616C
:104BC0008031803F001E0000000000000000806176
:104BD00080618061806180618061807F807F806191
:104BE0008061806180618061806100000000000060
:104BF0000000003F003F000C000C000C000C000CFB
:104C0000000C000C000C000C000C003F003F0000EA
:104C1000000000000000800180018001800180010F
:104C20008001800180018001806180618073003F8C
:104C3000001E0000000000000000C06080610063F2
:104C400000660066006C0078007C00660066006309
:104C500080618061C0600000000000000000006012
:104C60000060006000600060006000600060006044
:104C7000006000600060807F807F00000000000016
:104C80000000C071C071C07BC07AC06AC06AC06ECB
:104C9000C064C060C060C060C060C060C060000030
:104CA0000000000000008071807180798079807937
:104CB000806D806D806D80658067806780678063B0
:104CC00080630000000000000000001E003F003371
:104CD00080618061806180618061806180618061CC
:104CE0000033003F001E0000000000000000007EB6
:104CF000007F80638061806180618063007F007ECF
:104D000000600060006000600060000000000000C3
:104D10000000001E003F003380618061806180617F
:104D200080618061806580670033803F401E0000A5
:104D3000000000000000007E007F806380618061D1
:104D40008063007F007E0066006300638061806195
:104D5000C0600000000000000000000E001F803155
:104D6000803100300038001E0007800380618061C0
:104D70008031003F001E0000000000000000C0FF66
:104D8000C0FF000C000C000C000C000C000C000C10
:104D9000000C000C000C000C000C000000000000D7
:104DA00000008061806180618061806180618061DC
:104DB00080618061806180618073003F001E00001F
:104DC000000000000000C060C060C0608031803121
:104DD0008031001B001B001B001B000E000E000E8C
:104DE00000040000000000000000C0C0C0C0C0C03F
:104DF000C0C0C0C0C0CC804C804C805E805280520D
:104E00008073806180610000000000000000C0C06D
:104E1000806080610033003B001E000C000C001E0F
:104E2000001F003B80718061C0C0000000000000D6
:104E30000000C0C08061806100330033001E001E8E
:104E4000000C000C000C000C000C000C000C00000E
:104E5000000000000000803F803F8001000300034D
:104E60000006000C000C0018001800300060807F65
:104E7000807F000000000000000F000F000C000CFD
:104E8000000C000C000C000C000C000C000C000CC2
:104E9000000C000C000C000C000F000F00000018AC
:104EA00000180018000C000C000C000C0006000696
:104EB00000060006000300030003000000000000DD
:104EC000001E001E00060006000600060006000682
:104ED00000060006000600060006000600060006A2
:104EE000001E001E0000000C000C001E001200330B
:104EF00000338061806100000000000000000000BD
:104F000000000000000000000000000000000000A1
:104F10000000000000000000000000000000000091
:104F20000000000000000000E0FF0000000000386A
:104F30000018000C0000000000000000000000004D
:104F40000000000000000000000000000000000061
:104F500000000000000000000000001F803F806192
:104F60008001801F803F80618063807FC0380000A7
:104F70000000000000000060006000600060006E43
:104F8000007F807380618061806180618073007FB9
:104F9000006E0000000000000000000000000000A3
:104FA0000000001E003F807380610060006080612F
:104FB0008073003F001E0000000000000000800120
:104FC000800180018001801D803F8073806180614D
:104FD000806180618073803F801D000000000000C0
:104FE00000000000000000000000001E003F0073F1
:104FF0008061807F807F00608071003F001E000024
:10500000000000000000C007C00F000C000C807FF3
:10501000807F000C000C000C000C000C000C000C3D
:10502000000C000000000000000000000000000074
:10503000801D803F807380618061806180618073AA
:10504000803F801D80018063007F003E0000006083
:10505000006000600060006F807F8071806180610F
:1050600080618061806180618061000000000000DB
:1050700000000006000600000000003E003E0006A2
:1050800000060006000600060006000600060000F6
:10509000000000000006000600000000003E003E88
:1050A00000060006000600060006000600060006D0
:1050B00000060046007E003C0000006000600060CA
:1050C0000060806100630066006C007C0076006315
:1050D00000638061C0600000000000000000003E2E
:1050E000003E000600060006000600060006000658
:1050F0000006000600060006000600000000000092
:105100000000000000000000000080DDC0FFC0CEF5
:10511000C0CCC0CCC0CCC0CCC0CCC0CCC0CC0000BB
:105120000000000000000000000000000000006F10
:10513000807F807180618061806180618061806139
:10514000806100000000000000000000000000007E
:105150000000001E003F807380618061806180617B
:105160008073003F001E00000000000000000000EF
:1051700000000000006E007F8073806180618061AC
:1051800080618073007F006E0060006000600060DE
:105190000000000000000000801D803F80738061DF
:1051A0008061806180618073803F801D800180010B
:1051B0008001800100000000000000000000006786
:1051C000803F0039003000300030003000300030C7
:1051D000003000000000000000000000000000009F
:1051E0000000001E803F80610060007F803F8001E2
:1051F0008061007F001E0000000000000000000031
:10520000000800180018007F007F00180018001820
:10521000001800180018801F800F00000000000018
:1052200000000000000000000000806180618061DB
:1052300080618061806180618063807F803D00004B
:105240000000000000000000000000000000C0603E
:10525000803180318031001B001B001B000E000ECE
:105260000006000000000000000000000000000038
:10527000000080DD80DD80DD0055005500550077A1
:105280000077002200220000000000000000000063
:10529000000000000000806100330033001E000C9D
:1052A000000C001E0033003380610000000000008D
:1052B0000000000000000000806180618031003348
:1052C0000033001B001B001B000E000E000E001C14
:1052D000007C007000000000000000000000C07FA3
:1052E000C07F800100030006000C00180030C07F62
:1052F000C07F000000000000800380070006000659
:10530000000600060006000E001C001C000E000631
:10531000000600060006000680078003000600065F
:10532000000600060006000600060006000600064D
:10533000000600060006000600060006000600063D
:105340000038003C000C000C000C000C000C000E9F
:1053500000070007000E000C000C000C000C000CF5
:10536000003C0038000000000000000000000000C9
:1053700000008038807F004700000000000000002F
:10538000000000000000000000000000000000001D
:10539000000000000000000000200020002000208D
:1053A00000200000002000000050005000500000CD
:1053B00000000000000000000050005000F8005005
:1053C00000F80050005000000020007800A000709D
:1053D000002800F00020000000C000C800100020DD
:1053E0000040009800180000004000A000A000400D
:1053F00000A800900068000000300030002000404D
:1054000000000000000000000010002000400040EC
:10541000004000200010000000400020001000109C
:105420000010002000400000002000A8007000F8DC
:10543000007000A80020000000000020002000F8FC
:10544000002000200000000000000000000000001C
:10545000003000300020000000000000000000F8D4
:10546000000000000000000000000000000000003C
:105470000000003000300000000000080010002094
:10548000004000800000000000700088009800A824
:1054900000C800880070000000200060002000208C
:1054A00000200020007000000070008800080070DC
:1054B0000080008000F8000000F8000800100030B4
:1054C00000080088007000000010003000500090BC
:1054D00000F800100010000000F8008000F0000844
:1054E000000800880070000000380040008000F0D4
:1054F000008800880070000000F800080008001014
:1055000000200040008000000070008800880070CB
:105510000088008800700000007000880088007813
:105520000008001000E00000000000000020000063
:10553000002000000000000000000000002000002B
:105540000020002000400000000800100020004063
:1055500000200010000800000000000000F800001B
:1055600000F80000000000000040002000100008CB
:10557000001000200040000000700088000800308B
:1055800000200000002000000070008800A800B883
:1055900000B00080007800000020005000880088E3
:1055A00000F800880088000000F00088008800F003
:1055B0000088008800F000000070008800800080F3
:1055C000008000880070000000F0008800880088DB
:1055D0000088008800F0000000F80080008000F0E3
:1055E0000080008000F8000000F80080008000F0DB
:1055F000008000800080000000780088008000802B
:10560000009800880078000000880088008800F872
:105610000088008800880000007000200020002022
:105620000020002000700000003800100010001062
:1056300000100090006000000088009000A000C0F2
:1056400000A00090008800000080008000800080A2
:105650000080008000F80000008800D800A800A8A2
:1056600000A80088008800000088008800C800A802
:10567000009800880088000000700088008800887A
:10568000008800880070000000F00088008800F0AA
:105690000080008000800000007000880088008882
:1056A00000A800900068000000F00088008800F06A
:1056B00000A000900088000000700088008000704A
:1056C000000800880070000000F800A800200020FA
:1056D000002000200020000000880088008800884A
:1056E000008800880070000000880088008800881A
:1056F000008800500020000000880088008800A872
:1057000000A800A800500000008800880050002079
:1057100000500088008800000088008800500020A9
:10572000002000200020000000F800080010007099
:105730000040008000F80000007800400040004079
:105740000040004000780000000000800040002081
:1057500000100008000000000078000800080008A1
:1057600000080008007800000020005000880000B9
:105770000000000000000000000000000000000029
:105780000000000000F80000006000600020001031
:105790000000000000000000000000000060001099
:1057A00000700090007800000080008000B000C809
:1057B000008800C800B000000000000000700088F1
:1057C0000080008800700000000800080068009851
:1057D0000088009800680000000000000070008849
:1057E00000F8008000700000001000280020007009
:1057F0000020002000200000000000000070009841
:1058000000980068000800000080008000B000C818
:105810000088008800880000002000000060002050
:105820000020002000700000001000000010001098
:10583000001000900060000000800080009000A038
:1058400000C000A0009000000060002000200020A8
:1058500000200020007000000000000000D000A820
:1058600000A800A800A800000000000000B000C8C8
:105870000088008800880000000000000070008898
:1058800000880088007000000000000000B000C820
:1058900000C800B000800000000000000068009810
:1058A00000980068000800000000000000B000C878
:1058B0000080008000800000000000000078008070
:1058C0000070000800F000000020002000F8002018
:1058D0000020002800100000000000000088008860
:1058E0000088009800680000000000000088008820
:1058F00000880050002000000000000000880088A0
:1059000000A800A80050000000000000008800501F
:10591000002000500088000000000000008800887F
:1059200000780008008800000000000000F8001067
:105930000020004000F8000000100020002000407F
:1059400000200020001000000020002000200000A7
:105950000020002000200000004000200020001057
:105960000020002000400000004000A800100000BF
:105970000000000000000000313200330036003922
:105980000025642564000000D85A000800000020AB
:1059900010000000C4010008E85A000810000020B0
:1059A000900A0000E00100081C0000004300000015
:1059B000F8FFFFFF0C0000000E0000000F000000C9
:1059C0002E0000001001000043000000F8FFFFFF60
:1059D0000040404040404040404041414141414002
:1059E00040404040404040404040404040404040B7
:1059F0004005020202020202020202020202020246
:105A0000022020202020202020202002020202024A
:105A100002029090909090901010101010101010A2
:105A200010101010101010101010101002020202AE
:105A300002028888888888880808080808080808F2
:105A400008080808080808080808080802020202EE
:105A50004000000000000000000000000000000006
:105A60000000000000000000000000000000000036
:105A70000000000000000000000000000000000026
:105A80000000000000000000000000000000000016
:105A90000000000000000000000000000000000006
:105AA00000000000000000000000000000000000F6
:105AB00000000000000000000000000000000000E6
:105AC00000000000000000000000000000000000D6
:105AD00000000000000000000B1200002C4600082F
